{
  "address": "0x5533AAd619bb5FC4dF7a0f68fceD4Ce28184809a",
  "abi": [
    {
      "inputs": [
        {
          "components": [
            {
              "internalType": "string",
              "name": "_symbol",
              "type": "string"
            },
            {
              "internalType": "address",
              "name": "_address",
              "type": "address"
            },
            {
              "internalType": "uint32",
              "name": "_chainId",
              "type": "uint32"
            },
            {
              "internalType": "address",
              "name": "_aggregator",
              "type": "address"
            },
            {
              "internalType": "string[]",
              "name": "_tags",
              "type": "string[]"
            }
          ],
          "internalType": "struct TokenInfo[]",
          "name": "_tokenInfo",
          "type": "tuple[]"
        },
        {
          "internalType": "address",
          "name": "_liquidityManager",
          "type": "address"
        },
        {
          "internalType": "address",
          "name": "_axelarGateway",
          "type": "address"
        },
        {
          "components": [
            {
              "internalType": "uint256",
              "name": "_timeWindow",
              "type": "uint256"
            },
            {
              "internalType": "uint256",
              "name": "_sampleSize",
              "type": "uint256"
            },
            {
              "internalType": "uint256",
              "name": "_bribeUnit",
              "type": "uint256"
            }
          ],
          "internalType": "struct AggregatorParams",
          "name": "_aggregatorParams",
          "type": "tuple"
        }
      ],
      "stateMutability": "nonpayable",
      "type": "constructor"
    },
    {
      "inputs": [],
      "name": "InvalidAddress",
      "type": "error"
    },
    {
      "inputs": [],
      "name": "NotApprovedByGateway",
      "type": "error"
    },
    {
      "inputs": [],
      "name": "bribeUnit",
      "outputs": [
        {
          "internalType": "uint256",
          "name": "",
          "type": "uint256"
        }
      ],
      "stateMutability": "view",
      "type": "function"
    },
    {
      "inputs": [],
      "name": "chainId",
      "outputs": [
        {
          "internalType": "uint32",
          "name": "",
          "type": "uint32"
        }
      ],
      "stateMutability": "view",
      "type": "function"
    },
    {
      "inputs": [
        {
          "internalType": "uint64",
          "name": "",
          "type": "uint64"
        }
      ],
      "name": "chainSelectorIdToDestinationChain",
      "outputs": [
        {
          "internalType": "string",
          "name": "",
          "type": "string"
        }
      ],
      "stateMutability": "view",
      "type": "function"
    },
    {
      "inputs": [
        {
          "internalType": "uint64",
          "name": "",
          "type": "uint64"
        }
      ],
      "name": "chainSelectorIdToSidechainAddress",
      "outputs": [
        {
          "internalType": "address",
          "name": "",
          "type": "address"
        }
      ],
      "stateMutability": "view",
      "type": "function"
    },
    {
      "inputs": [],
      "name": "checkTokenParams",
      "outputs": [],
      "stateMutability": "nonpayable",
      "type": "function"
    },
    {
      "inputs": [],
      "name": "collectPriceFeeds",
      "outputs": [],
      "stateMutability": "nonpayable",
      "type": "function"
    },
    {
      "inputs": [
        {
          "internalType": "bytes32",
          "name": "commandId",
          "type": "bytes32"
        },
        {
          "internalType": "string",
          "name": "sourceChain",
          "type": "string"
        },
        {
          "internalType": "string",
          "name": "sourceAddress",
          "type": "string"
        },
        {
          "internalType": "bytes",
          "name": "payload",
          "type": "bytes"
        }
      ],
      "name": "execute",
      "outputs": [],
      "stateMutability": "nonpayable",
      "type": "function"
    },
    {
      "inputs": [
        {
          "internalType": "bytes32",
          "name": "commandId",
          "type": "bytes32"
        },
        {
          "internalType": "string",
          "name": "sourceChain",
          "type": "string"
        },
        {
          "internalType": "string",
          "name": "sourceAddress",
          "type": "string"
        },
        {
          "internalType": "bytes",
          "name": "payload",
          "type": "bytes"
        },
        {
          "internalType": "string",
          "name": "tokenSymbol",
          "type": "string"
        },
        {
          "internalType": "uint256",
          "name": "amount",
          "type": "uint256"
        }
      ],
      "name": "executeWithToken",
      "outputs": [],
      "stateMutability": "nonpayable",
      "type": "function"
    },
    {
      "inputs": [],
      "name": "gateway",
      "outputs": [
        {
          "internalType": "contract IAxelarGateway",
          "name": "",
          "type": "address"
        }
      ],
      "stateMutability": "view",
      "type": "function"
    },
    {
      "inputs": [],
      "name": "getCollectPriceFeedsSeq",
      "outputs": [
        {
          "internalType": "uint256",
          "name": "",
          "type": "uint256"
        }
      ],
      "stateMutability": "nonpayable",
      "type": "function"
    },
    {
      "inputs": [],
      "name": "isMainChain",
      "outputs": [
        {
          "internalType": "bool",
          "name": "",
          "type": "bool"
        }
      ],
      "stateMutability": "view",
      "type": "function"
    },
    {
      "inputs": [
        {
          "internalType": "uint256",
          "name": "",
          "type": "uint256"
        }
      ],
      "name": "lastIndexOrder",
      "outputs": [
        {
          "internalType": "uint256",
          "name": "",
          "type": "uint256"
        }
      ],
      "stateMutability": "view",
      "type": "function"
    },
    {
      "inputs": [],
      "name": "lastIndexTimestamp",
      "outputs": [
        {
          "internalType": "uint256",
          "name": "",
          "type": "uint256"
        }
      ],
      "stateMutability": "view",
      "type": "function"
    },
    {
      "inputs": [
        {
          "internalType": "uint256",
          "name": "",
          "type": "uint256"
        }
      ],
      "name": "liquidities",
      "outputs": [
        {
          "internalType": "uint256",
          "name": "",
          "type": "uint256"
        }
      ],
      "stateMutability": "view",
      "type": "function"
    },
    {
      "inputs": [],
      "name": "liquidityManager",
      "outputs": [
        {
          "internalType": "contract ILiquidityManager",
          "name": "",
          "type": "address"
        }
      ],
      "stateMutability": "view",
      "type": "function"
    },
    {
      "inputs": [
        {
          "internalType": "uint256",
          "name": "",
          "type": "uint256"
        }
      ],
      "name": "liquidityMessages",
      "outputs": [
        {
          "internalType": "address",
          "name": "token",
          "type": "address"
        },
        {
          "internalType": "string",
          "name": "tokenDemonination",
          "type": "string"
        },
        {
          "internalType": "uint256",
          "name": "liquidity",
          "type": "uint256"
        },
        {
          "internalType": "uint32",
          "name": "chainId",
          "type": "uint32"
        },
        {
          "internalType": "uint256",
          "name": "timestamp",
          "type": "uint256"
        }
      ],
      "stateMutability": "view",
      "type": "function"
    },
    {
      "inputs": [],
      "name": "mainChainId",
      "outputs": [
        {
          "internalType": "uint32",
          "name": "",
          "type": "uint32"
        }
      ],
      "stateMutability": "view",
      "type": "function"
    },
    {
      "inputs": [
        {
          "internalType": "uint256",
          "name": "",
          "type": "uint256"
        },
        {
          "internalType": "uint256",
          "name": "",
          "type": "uint256"
        }
      ],
      "name": "movingAverage",
      "outputs": [
        {
          "internalType": "uint256",
          "name": "",
          "type": "uint256"
        }
      ],
      "stateMutability": "view",
      "type": "function"
    },
    {
      "inputs": [
        {
          "internalType": "uint256[]",
          "name": "indexOrders",
          "type": "uint256[]"
        },
        {
          "internalType": "string",
          "name": "tag",
          "type": "string"
        }
      ],
      "name": "persistIndex",
      "outputs": [
        {
          "internalType": "bool",
          "name": "",
          "type": "bool"
        }
      ],
      "stateMutability": "nonpayable",
      "type": "function"
    },
    {
      "inputs": [
        {
          "internalType": "string",
          "name": "sourceChain_",
          "type": "string"
        },
        {
          "internalType": "string",
          "name": "sourceAddress_",
          "type": "string"
        },
        {
          "internalType": "bytes",
          "name": "payload_",
          "type": "bytes"
        }
      ],
      "name": "pullexecute",
      "outputs": [],
      "stateMutability": "nonpayable",
      "type": "function"
    },
    {
      "inputs": [
        {
          "components": [
            {
              "components": [
                {
                  "internalType": "address",
                  "name": "token",
                  "type": "address"
                },
                {
                  "internalType": "string",
                  "name": "tokenDemonination",
                  "type": "string"
                },
                {
                  "internalType": "uint256",
                  "name": "liquidity",
                  "type": "uint256"
                },
                {
                  "internalType": "uint32",
                  "name": "chainId",
                  "type": "uint32"
                },
                {
                  "internalType": "uint256",
                  "name": "timestamp",
                  "type": "uint256"
                }
              ],
              "internalType": "struct LiquidityMessage[]",
              "name": "liquidityMessages",
              "type": "tuple[]"
            },
            {
              "components": [
                {
                  "internalType": "address",
                  "name": "token",
                  "type": "address"
                },
                {
                  "internalType": "uint256",
                  "name": "supply",
                  "type": "uint256"
                },
                {
                  "internalType": "uint32",
                  "name": "chainId",
                  "type": "uint32"
                },
                {
                  "internalType": "uint256",
                  "name": "timestamp",
                  "type": "uint256"
                }
              ],
              "internalType": "struct SupplyMessage[]",
              "name": "supplyMessages",
              "type": "tuple[]"
            }
          ],
          "internalType": "struct IndexUpdateMessage",
          "name": "indexMessage",
          "type": "tuple"
        }
      ],
      "name": "receiveFromAxelar",
      "outputs": [],
      "stateMutability": "nonpayable",
      "type": "function"
    },
    {
      "inputs": [
        {
          "internalType": "uint32",
          "name": "_chainId",
          "type": "uint32"
        },
        {
          "internalType": "uint32",
          "name": "_mainChainId",
          "type": "uint32"
        },
        {
          "internalType": "address",
          "name": "_mainChainAddress",
          "type": "address"
        }
      ],
      "name": "setChainId",
      "outputs": [],
      "stateMutability": "nonpayable",
      "type": "function"
    },
    {
      "inputs": [
        {
          "internalType": "uint64",
          "name": "chainSelectorId",
          "type": "uint64"
        },
        {
          "internalType": "string",
          "name": "destinationChain",
          "type": "string"
        }
      ],
      "name": "setDestinationChain",
      "outputs": [],
      "stateMutability": "nonpayable",
      "type": "function"
    },
    {
      "inputs": [
        {
          "internalType": "uint64",
          "name": "chainSelectorId",
          "type": "uint64"
        },
        {
          "internalType": "address",
          "name": "sideChainAddress",
          "type": "address"
        }
      ],
      "name": "setSideChainAddress",
      "outputs": [],
      "stateMutability": "nonpayable",
      "type": "function"
    },
    {
      "inputs": [
        {
          "internalType": "uint256",
          "name": "",
          "type": "uint256"
        }
      ],
      "name": "supplyMessages",
      "outputs": [
        {
          "internalType": "address",
          "name": "token",
          "type": "address"
        },
        {
          "internalType": "uint256",
          "name": "supply",
          "type": "uint256"
        },
        {
          "internalType": "uint32",
          "name": "chainId",
          "type": "uint32"
        },
        {
          "internalType": "uint256",
          "name": "timestamp",
          "type": "uint256"
        }
      ],
      "stateMutability": "view",
      "type": "function"
    },
    {
      "inputs": [
        {
          "internalType": "string",
          "name": "",
          "type": "string"
        },
        {
          "internalType": "uint256",
          "name": "",
          "type": "uint256"
        }
      ],
      "name": "tagsIndexOrder",
      "outputs": [
        {
          "internalType": "uint256",
          "name": "",
          "type": "uint256"
        }
      ],
      "stateMutability": "view",
      "type": "function"
    },
    {
      "inputs": [
        {
          "internalType": "string",
          "name": "",
          "type": "string"
        }
      ],
      "name": "tagsIndexTimestamp",
      "outputs": [
        {
          "internalType": "uint256",
          "name": "",
          "type": "uint256"
        }
      ],
      "stateMutability": "view",
      "type": "function"
    },
    {
      "inputs": [
        {
          "internalType": "uint256",
          "name": "",
          "type": "uint256"
        }
      ],
      "name": "tokenInfo",
      "outputs": [
        {
          "internalType": "string",
          "name": "_symbol",
          "type": "string"
        },
        {
          "internalType": "address",
          "name": "_address",
          "type": "address"
        },
        {
          "internalType": "uint32",
          "name": "_chainId",
          "type": "uint32"
        },
        {
          "internalType": "address",
          "name": "_aggregator",
          "type": "address"
        }
      ],
      "stateMutability": "view",
      "type": "function"
    },
    {
      "inputs": [
        {
          "internalType": "uint256",
          "name": "",
          "type": "uint256"
        }
      ],
      "name": "tokenParamsTimestampUpdates",
      "outputs": [
        {
          "internalType": "uint256",
          "name": "",
          "type": "uint256"
        }
      ],
      "stateMutability": "view",
      "type": "function"
    },
    {
      "inputs": [
        {
          "internalType": "uint256",
          "name": "",
          "type": "uint256"
        }
      ],
      "name": "tokenSymbols",
      "outputs": [
        {
          "internalType": "string",
          "name": "",
          "type": "string"
        }
      ],
      "stateMutability": "view",
      "type": "function"
    },
    {
      "inputs": [
        {
          "internalType": "string",
          "name": "",
          "type": "string"
        }
      ],
      "name": "tokens",
      "outputs": [
        {
          "internalType": "uint256",
          "name": "",
          "type": "uint256"
        }
      ],
      "stateMutability": "view",
      "type": "function"
    },
    {
      "inputs": [
        {
          "internalType": "uint256",
          "name": "",
          "type": "uint256"
        }
      ],
      "name": "totalSupplies",
      "outputs": [
        {
          "internalType": "uint256",
          "name": "",
          "type": "uint256"
        }
      ],
      "stateMutability": "view",
      "type": "function"
    },
    {
      "inputs": [
        {
          "internalType": "uint256[]",
          "name": "_totalSupplies",
          "type": "uint256[]"
        },
        {
          "internalType": "uint256[]",
          "name": "_liquidities",
          "type": "uint256[]"
        }
      ],
      "name": "updateTokenParams",
      "outputs": [],
      "stateMutability": "nonpayable",
      "type": "function"
    }
  ],
  "transactionHash": "0x240fc993ca4f261436c16c7a2c407d338a1f3b700f51b0e78fdb313bc75cb019",
  "args": [
    [],
    "0xD681Ef2EffcFaFd04e8Dc9FAA46A2cf1E8F4e2A8",
    "0x3D2C578523B36FA9097f503868120A3eC5b73177",
    {
      "_timeWindow": 60,
      "_sampleSize": 30,
      "_bribeUnit": "50000000000000000"
    }
  ],
  "numDeployments": 1,
  "solcInputHash": "91a92c1eb18f7a936e3ddc34d36364b2",
  "bytecode": "0x60a060405260006016553480156200001657600080fd5b5060405162003e2038038062003e208339810160408190526200003991620005f3565b816001600160a01b038116620000625760405163e6c4247b60e01b815260040160405180910390fd5b6001600160a01b03166080526020810151600c8190558151600d8190556200008b919062000791565b600e556040810151601455600080546001600160a01b038085166001600160a01b031992831617835560038054918716919092161790555b8451811015620002c7576001858281518110620000e457620000e4620007b4565b6020908102919091018101518254600181018455600093845291909220825160049092020190819062000118908262000859565b50602082810151600183018054604086015163ffffffff16600160a01b026001600160c01b03199091166001600160a01b03938416171790556060840151600284018054919092166001600160a01b03199190911617905560808301518051620001899260038501920190620002d2565b5050506005858281518110620001a357620001a3620007b4565b6020908102919091018101515182546001810184556000938452919092200190620001cf908262000859565b50806004868381518110620001e857620001e8620007b4565b60200260200101516000015160405162000203919062000925565b90815260200160405180910390208190555060088582815181106200022c576200022c620007b4565b6020026020010151602001516001600160a01b03166318160ddd6040518163ffffffff1660e01b8152600401602060405180830381865afa15801562000276573d6000803e3d6000fd5b505050506040513d601f19601f820116820180604052508101906200029c919062000943565b8154600181018355600092835260209092209091015580620002be816200095d565b915050620000c3565b505050505062000985565b8280548282559060005260206000209081019282156200031d579160200282015b828111156200031d57825182906200030c908262000859565b5091602001919060010190620002f3565b506200032b9291506200032f565b5090565b808211156200032b57600062000346828262000350565b506001016200032f565b5080546200035e90620007ca565b6000825580601f106200036f575050565b601f0160209004906000526020600020908101906200038f919062000392565b50565b5b808211156200032b576000815560010162000393565b634e487b7160e01b600052604160045260246000fd5b60405160a081016001600160401b0381118282101715620003e457620003e4620003a9565b60405290565b604051601f8201601f191681016001600160401b0381118282101715620004155762000415620003a9565b604052919050565b60006001600160401b03821115620004395762000439620003a9565b5060051b60200190565b60005b838110156200046057818101518382015260200162000446565b50506000910152565b600082601f8301126200047b57600080fd5b81516001600160401b03811115620004975762000497620003a9565b620004ac601f8201601f1916602001620003ea565b818152846020838601011115620004c257600080fd5b620004d582602083016020870162000443565b949350505050565b80516001600160a01b0381168114620004f557600080fd5b919050565b600082601f8301126200050c57600080fd5b81516020620005256200051f836200041d565b620003ea565b82815260059290921b840181019181810190868411156200054557600080fd5b8286015b84811015620005895780516001600160401b038111156200056a5760008081fd5b6200057a8986838b010162000469565b84525091830191830162000549565b509695505050505050565b600060608284031215620005a757600080fd5b604051606081016001600160401b0381118282101715620005cc57620005cc620003a9565b80604052508091508251815260208301516020820152604083015160408201525092915050565b60008060008060c085870312156200060a57600080fd5b84516001600160401b03808211156200062257600080fd5b818701915087601f8301126200063757600080fd5b8151620006486200051f826200041d565b8082825260208201915060208360051b86010192508a8311156200066b57600080fd5b602085015b838110156200074e578051858111156200068957600080fd5b860160a0818e03601f19011215620006a057600080fd5b620006aa620003bf565b602082015187811115620006bd57600080fd5b620006ce8f60208386010162000469565b825250620006df60408301620004dd565b6020820152606082015163ffffffff81168114620006fc57600080fd5b60408201526200070f60808301620004dd565b606082015260a0820151878111156200072757600080fd5b620007388f602083860101620004fa565b6080830152508452506020928301920162000670565b5080985050505050506200076560208601620004dd565b92506200077560408601620004dd565b915062000786866060870162000594565b905092959194509250565b600082620007af57634e487b7160e01b600052601260045260246000fd5b500490565b634e487b7160e01b600052603260045260246000fd5b600181811c90821680620007df57607f821691505b6020821081036200080057634e487b7160e01b600052602260045260246000fd5b50919050565b601f8211156200085457600081815260208120601f850160051c810160208610156200082f5750805b601f850160051c820191505b8181101562000850578281556001016200083b565b5050505b505050565b81516001600160401b03811115620008755762000875620003a9565b6200088d81620008868454620007ca565b8462000806565b602080601f831160018114620008c55760008415620008ac5750858301515b600019600386901b1c1916600185901b17855562000850565b600085815260208120601f198616915b82811015620008f657888601518255948401946001909101908401620008d5565b5085821015620009155787850151600019600388901b60f8161c191681555b5050505050600190811b01905550565b600082516200093981846020870162000443565b9190910192915050565b6000602082840312156200095657600080fd5b5051919050565b6000600182016200097e57634e487b7160e01b600052601160045260246000fd5b5060010190565b608051613471620009af600039600081816102830152818161067f015261077301526134716000f3fe608060405234801561001057600080fd5b50600436106101fb5760003560e01c80636e7ddea81161011a578063c7868013116100ad578063e1bbd9db1161007c578063e1bbd9db1461055f578063eaeca51114610572578063f156ebf51461057a578063f7df834e14610583578063fe3480e4146105ca57600080fd5b8063c78680131461050d578063cc33c87514610520578063d440b45814610543578063d5bb61551461054c57600080fd5b80639ec3cd03116100e95780639ec3cd031461046c578063b547eccf146104b4578063b54fa474146104df578063b834f6fb146104f257600080fd5b80636e7ddea81461040657806370875ec61461042657806375ffdf5d146104395780639a8a05921461045c57600080fd5b806333827438116101925780636703a8da116101615780636703a8da146103bf57806369d7273d146103c757806369e3e4cd146103eb5780636ccf03dc146103fe57600080fd5b8063338274381461035d57806349160658146103705780635dc55ac21461038357806365c3048e1461039657600080fd5b806316ee5b04116101ce57806316ee5b04146102bd5780631768bbe9146102d0578063193e795e146103375780631a98b2e01461034a57600080fd5b806304c2320b146102005780630713051d1461023e5780630f45ad4314610251578063116191b61461027e575b600080fd5b61022b61020e36600461239c565b805160208183018101805160048252928201919093012091525481565b6040519081526020015b60405180910390f35b61022b61024c3660046123d8565b6105dd565b60155461026990640100000000900463ffffffff1681565b60405163ffffffff9091168152602001610235565b6102a57f000000000000000000000000000000000000000000000000000000000000000081565b6040516001600160a01b039091168152602001610235565b61022b6102cb3660046123f1565b6105fe565b6103356102de366004612460565b601580546001600160a01b03909216600160401b0268010000000000000000600160e01b031963ffffffff9485166401000000000267ffffffffffffffff1990941694909516939093179190911792909216179055565b005b61022b6103453660046123d8565b61063e565b6103356103583660046124eb565b61064e565b6003546102a5906001600160a01b031681565b61033561037e3660046125c4565b610742565b61022b610391366004612667565b61082a565b6102a56103a43660046126a0565b6017602052600090815260409020546001600160a01b031681565b610335610846565b6103da6103d53660046123d8565b610a46565b604051610235959493929190612712565b6103356103f93660046127e7565b610b23565b61022b6113e1565b6104196104143660046123d8565b611403565b604051610235919061284a565b61033561043436600461285d565b6114af565b61044c6104473660046128af565b6114d8565b6040519015158152602001610235565b6015546102699063ffffffff1681565b61047f61047a3660046123d8565b6117da565b604080516001600160a01b039095168552602085019390935263ffffffff909116918301919091526060820152608001610235565b61022b6104c236600461239c565b805160208183018101805160128252928201919093012091525481565b61022b6104ed3660046123d8565b611824565b601554640100000000810463ffffffff90811691161461044c565b61033561051b3660046129a9565b611834565b61053361052e3660046123d8565b611a70565b6040516102359493929190612b17565b61022b60145481565b61033561055a366004612b59565b611b4d565b61022b61056d3660046123d8565b611b63565b610335611b73565b61022b60135481565b610335610591366004612bf2565b6001600160401b0391909116600090815260176020526040902080546001600160a01b0319166001600160a01b03909216919091179055565b6104196105d83660046126a0565b611e34565b600981815481106105ed57600080fd5b600091825260209091200154905081565b8151602081840181018051601182529282019185019190912091905280548290811061062957600080fd5b90600052602060002001600091509150505481565b601081815481106105ed57600080fd5b60008585604051610660929190612c25565b604051908190038120631876eed960e01b825291506001600160a01b037f00000000000000000000000000000000000000000000000000000000000000001690631876eed9906106c4908e908e908e908e908e9089908d908d908d90600401612c5e565b6020604051808303816000875af11580156106e3573d6000803e3d6000fd5b505050506040513d601f19601f820116820180604052508101906107079190612cbd565b61072457604051631403112d60e21b815260040160405180910390fd5b6107358a8a8a8a8a8a8a8a8a6113d5565b5050505050505050505050565b60008282604051610754929190612c25565b604051908190038120635f6970c360e01b825291506001600160a01b037f00000000000000000000000000000000000000000000000000000000000000001690635f6970c3906107b2908b908b908b908b908b908990600401612cdf565b6020604051808303816000875af11580156107d1573d6000803e3d6000fd5b505050506040513d601f19601f820116820180604052508101906107f59190612cbd565b61081257604051631403112d60e21b815260040160405180910390fd5b610820878787878787611e4d565b5050505050505050565b600b602052816000526040600020818154811061062957600080fd5b60005b600154811015610a4357600d54600a828154811061086957610869612d20565b90600052602060002001544261087f9190612d4c565b10610a3157600354600180546001600160a01b03909216916361566a3e9190849081106108ae576108ae612d20565b600091825260209091206004918202016001015460405160e084901b6001600160e01b03191681526001600160a01b0390911691810191909152602401602060405180830381865afa158015610908573d6000803e3d6000fd5b505050506040513d601f19601f8201168201806040525081019061092c9190612d5f565b6001600160801b03166009828154811061094857610948612d20565b90600052602060002001819055506001818154811061096957610969612d20565b906000526020600020906004020160010160009054906101000a90046001600160a01b03166001600160a01b03166318160ddd6040518163ffffffff1660e01b8152600401602060405180830381865afa1580156109cb573d6000803e3d6000fd5b505050506040513d601f19601f820116820180604052508101906109ef9190612d88565b60088281548110610a0257610a02612d20565b906000526020600020018190555042600a8281548110610a2457610a24612d20565b6000918252602090912001555b80610a3b81612da1565b915050610849565b50565b60078181548110610a5657600080fd5b6000918252602090912060059091020180546001820180546001600160a01b03909216935090610a8590612dba565b80601f0160208091040260200160405190810160405280929190818152602001828054610ab190612dba565b8015610afe5780601f10610ad357610100808354040283529160200191610afe565b820191906000526020600020905b815481529060010190602001808311610ae157829003601f168201915b50505050600283015460038401546004909401549293909263ffffffff909116915085565b60005b600154811015610d35576015546001805463ffffffff9092169183908110610b5057610b50612d20565b6000918252602090912060049091020160010154600160a01b900463ffffffff1603610d2357600354600180546001600160a01b03909216916361566a3e919084908110610ba057610ba0612d20565b600091825260209091206004918202016001015460405160e084901b6001600160e01b03191681526001600160a01b0390911691810191909152602401602060405180830381865afa158015610bfa573d6000803e3d6000fd5b505050506040513d601f19601f82011682018060405250810190610c1e9190612d5f565b6001600160801b031660098281548110610c3a57610c3a612d20565b906000526020600020018190555060018181548110610c5b57610c5b612d20565b906000526020600020906004020160010160009054906101000a90046001600160a01b03166001600160a01b03166318160ddd6040518163ffffffff1660e01b8152600401602060405180830381865afa158015610cbd573d6000803e3d6000fd5b505050506040513d601f19601f82011682018060405250810190610ce19190612d88565b60088281548110610cf457610cf4612d20565b906000526020600020018190555042600a8281548110610d1657610d16612d20565b6000918252602090912001555b80610d2d81612da1565b915050610b26565b5060155463ffffffff64010000000082048116911603610fb25760005b600854811015610e7f5760005b600154811015610e6c5760068281548110610d7c57610d7c612d20565b6000918252602090912060049091020154600180546001600160a01b039092169183908110610dad57610dad612d20565b60009182526020909120600160049092020101546001600160a01b031603610e5a5760068281548110610de257610de2612d20565b90600052602060002090600402016001015460088281548110610e0757610e07612d20565b906000526020600020018190555060068281548110610e2857610e28612d20565b906000526020600020906004020160030154600a8281548110610e4d57610e4d612d20565b6000918252602090912001555b80610e6481612da1565b915050610d5f565b5080610e7781612da1565b915050610d52565b5060005b600954811015610fb05760005b600154811015610f9d5760078281548110610ead57610ead612d20565b6000918252602090912060059091020154600180546001600160a01b039092169183908110610ede57610ede612d20565b60009182526020909120600160049092020101546001600160a01b031603610f8b5760078281548110610f1357610f13612d20565b90600052602060002090600502016002015460098281548110610f3857610f38612d20565b906000526020600020018190555060078281548110610f5957610f59612d20565b906000526020600020906005020160040154600a8281548110610f7e57610f7e612d20565b6000918252602090912001555b80610f9581612da1565b915050610e90565b5080610fa881612da1565b915050610e83565b505b601554640100000000810463ffffffff9081169116146113dd576001546000906001600160401b03811115610fe957610fe961227b565b60405190808252806020026020018201604052801561103b57816020015b6040805160808101825260008082526020808301829052928201819052606082015282526000199092019101816110075790505b506001549091506000906001600160401b0381111561105c5761105c61227b565b6040519080825280602002602001820160405280156110ce57816020015b6110bb6040518060a0016040528060006001600160a01b031681526020016060815260200160008152602001600063ffffffff168152602001600081525090565b81526020019060019003908161107a5790505b50905060005b60015481101561130f57600181815481106110f1576110f1612d20565b600091825260209091206001600490920201015460155463ffffffff600160a01b90920482169116036112fd5760405180608001604052806001838154811061113c5761113c612d20565b6000918252602091829020600160049092020101546001600160a01b03168252875191019087908490811061117357611173612d20565b602090810291909101810151825260155463ffffffff16908201524260409091015283518490839081106111a9576111a9612d20565b60200260200101819052506040518060a00160405280600183815481106111d2576111d2612d20565b600091825260209182902060016004909202018101546001600160a01b03168352805492909101918490811061120a5761120a612d20565b9060005260206000209060040201600001805461122690612dba565b80601f016020809104026020016040519081016040528092919081815260200182805461125290612dba565b801561129f5780601f106112745761010080835404028352916020019161129f565b820191906000526020600020905b81548152906001019060200180831161128257829003601f168201915b505050505081526020018583815181106112bb576112bb612d20565b602090810291909101810151825260155463ffffffff16908201524260409091015282518390839081106112f1576112f1612d20565b60200260200101819052505b8061130781612da1565b9150506110d4565b5060006040518060400160405280838152602001848152506040516020016113379190612e5e565b60408051601f198184030181529181526000805460155463ffffffff811683526018602052929091209293506001600160a01b0390811692631c92115f92909161138891600160401b900416612099565b846040518463ffffffff1660e01b81526004016113a793929190612f29565b600060405180830381600087803b1580156113c157600080fd5b505af11580156113d5573d6000803e3d6000fd5b505050505050505b5050565b60006001601660008282546113f69190612fdd565b9091555050601654919050565b6005818154811061141357600080fd5b90600052602060002001600091509050805461142e90612dba565b80601f016020809104026020016040519081016040528092919081815260200182805461145a90612dba565b80156114a75780601f1061147c576101008083540402835291602001916114a7565b820191906000526020600020905b81548152906001019060200180831161148a57829003601f168201915b505050505081565b6001600160401b03831660009081526018602052604090206114d282848361303b565b50505050565b60008080805b600186516114ec9190612d4c565b81101561174057600092506000915060005b600b600088848151811061151457611514612d20565b602002602001015181526020019081526020016000208054905081101561168757600887838151811061154957611549612d20565b60200260200101518154811061156157611561612d20565b9060005260206000200154600b600089858151811061158257611582612d20565b6020026020010151815260200190815260200160002082815481106115a9576115a9612d20565b90600052602060002001546115be91906130fb565b6115c89085612fdd565b93506008876115d8846001612fdd565b815181106115e8576115e8612d20565b60200260200101518154811061160057611600612d20565b9060005260206000200154600b60008985600161161d9190612fdd565b8151811061162d5761162d612d20565b60200260200101518152602001908152602001600020828154811061165457611654612d20565b906000526020600020015461166991906130fb565b6116739084612fdd565b92508061167f81612da1565b9150506114fe565b50600083116116b15760405162461bcd60e51b81526004016116a890613112565b60405180910390fd5b600082116116d15760405162461bcd60e51b81526004016116a890613112565b81831161172e5760405162461bcd60e51b815260206004820152602560248201527f496e64657841676772656761746f723a206f72646572206973206e6f7420636f6044820152641c9c9958dd60da1b60648201526084016116a8565b8061173881612da1565b9150506114de565b50604080516000815260208101808352815190209161176191879101613156565b60405160208183030381529060405280519060200120146117b4578460118560405161178d9190613156565b908152602001604051809103902090805190602001906117ae92919061221b565b506117cd565b84516117c790601090602088019061221b565b50426013555b6001925050505b92915050565b600681815481106117ea57600080fd5b600091825260209091206004909102018054600182015460028301546003909301546001600160a01b0390921693509163ffffffff169084565b600881815481106105ed57600080fd5b60005b8151518110156119405760008260000151828151811061185957611859612d20565b6020908102919091018101516007805460018101825560009190915281517fa66cc928b5edb82af9bd49922954155ab7b0942694bea4ce44661d9a8736c688600590920291820180546001600160a01b0319166001600160a01b03909216919091178155928201519193508392917fa66cc928b5edb82af9bd49922954155ab7b0942694bea4ce44661d9a8736c689909101906118f69082613172565b5060408201516002820155606082015160038201805463ffffffff191663ffffffff909216919091179055608090910151600490910155508061193881612da1565b915050611837565b5060005b8160200151518110156113dd5760008260200151828151811061196957611969612d20565b6020908102919091018101516006805460018101825560009190915281517ff652222313e28459528d920b65115c16c04f3efc82aaedc97be59f3f377c0d3f600490920291820180546001600160a01b0319166001600160a01b03909216919091179055918101517ff652222313e28459528d920b65115c16c04f3efc82aaedc97be59f3f377c0d4083015560408101517ff652222313e28459528d920b65115c16c04f3efc82aaedc97be59f3f377c0d418301805463ffffffff191663ffffffff909216919091179055606001517ff652222313e28459528d920b65115c16c04f3efc82aaedc97be59f3f377c0d42909101555080611a6881612da1565b915050611944565b60018181548110611a8057600080fd5b9060005260206000209060040201600091509050806000018054611aa390612dba565b80601f0160208091040260200160405190810160405280929190818152602001828054611acf90612dba565b8015611b1c5780601f10611af157610100808354040283529160200191611b1c565b820191906000526020600020905b815481529060010190602001808311611aff57829003601f168201915b50505050600183015460029093015491926001600160a01b0380821693600160a01b90920463ffffffff1692501684565b611b5b868686868686611e4d565b505050505050565b600a81815481106105ed57600080fd5b600e54600f54611b839042612d4c565b1015611be95760405162461bcd60e51b815260206004820152602f60248201527f496e64657841676772656761746f723a2053616d706c696e672066726571756560448201526e1b98de481b9bdd081c995858da1959608a1b60648201526084016116a8565b600d54600f54611bf99042612d4c565b10611c675760005b600154811015611c65576000818152600b602052604090205415611c53576000818152600b60205260409020805480611c3c57611c3c613231565b600190038181906000526020600020016000905590555b80611c5d81612da1565b915050611c01565b505b60005b600154811015611df757600060018281548110611c8957611c89612d20565b906000526020600020906004020160020160009054906101000a90046001600160a01b03166001600160a01b031663feaf968c6040518163ffffffff1660e01b815260040160a060405180830381865afa158015611ceb573d6000803e3d6000fd5b505050506040513d601f19601f82011682018060405250810190611d0f9190613261565b5050506000848152600b6020908152604082208054600181018255818452918320909101839055600c5486835290549294509092501015611d7e576000838152600b60205260409020805480611d6757611d67613231565b600190038181906000526020600020016000905590555b60005b6000848152600b6020526040902054811015611de1576000848152600b60205260409020805482908110611db757611db7612d20565b906000526020600020015482611dcd9190612fdd565b915080611dd981612da1565b915050611d81565b5050508080611def90612da1565b915050611c6a565b5042600f5560145415611e3257601454604051339180156108fc02916000818181858888f19350505050158015610a43573d6000803e3d6000fd5b565b6018602052600090815260409020805461142e90612dba565b6000611e5b828401846129a9565b905060005b815151811015611f6957600082600001518281518110611e8257611e82612d20565b6020908102919091018101516007805460018101825560009190915281517fa66cc928b5edb82af9bd49922954155ab7b0942694bea4ce44661d9a8736c688600590920291820180546001600160a01b0319166001600160a01b03909216919091178155928201519193508392917fa66cc928b5edb82af9bd49922954155ab7b0942694bea4ce44661d9a8736c68990910190611f1f9082613172565b5060408201516002820155606082015160038201805463ffffffff191663ffffffff9092169190911790556080909101516004909101555080611f6181612da1565b915050611e60565b5060005b81602001515181101561082057600082602001518281518110611f9257611f92612d20565b6020908102919091018101516006805460018101825560009190915281517ff652222313e28459528d920b65115c16c04f3efc82aaedc97be59f3f377c0d3f600490920291820180546001600160a01b0319166001600160a01b03909216919091179055918101517ff652222313e28459528d920b65115c16c04f3efc82aaedc97be59f3f377c0d4083015560408101517ff652222313e28459528d920b65115c16c04f3efc82aaedc97be59f3f377c0d418301805463ffffffff191663ffffffff909216919091179055606001517ff652222313e28459528d920b65115c16c04f3efc82aaedc97be59f3f377c0d4290910155508061209181612da1565b915050611f6d565b60408051602880825260608281019093526000919060208201818036833701905050905060005b60148110156121d95760006120d6826013612d4c565b6120e19060086130fb565b6120ec906002613395565b6120ff906001600160a01b0387166133b7565b60f81b9050600060108260f81c61211691906133cb565b60f81b905060008160f81c601061212d91906133ed565b8360f81c61213b9190613409565b60f81b9050612149826121e0565b856121558660026130fb565b8151811061216557612165612d20565b60200101906001600160f81b031916908160001a905350612185816121e0565b856121918660026130fb565b61219c906001612fdd565b815181106121ac576121ac612d20565b60200101906001600160f81b031916908160001a90535050505080806121d190612da1565b9150506120c0565b5092915050565b6000600a60f883901c1015612207576121fe60f883901c6030613422565b60f81b92915050565b6121fe60f883901c6057613422565b919050565b828054828255906000526020600020908101928215612256579160200282015b8281111561225657825182559160200191906001019061223b565b50612262929150612266565b5090565b5b808211156122625760008155600101612267565b634e487b7160e01b600052604160045260246000fd5b604051608081016001600160401b03811182821017156122b3576122b361227b565b60405290565b604080519081016001600160401b03811182821017156122b3576122b361227b565b60405160a081016001600160401b03811182821017156122b3576122b361227b565b604051601f8201601f191681016001600160401b03811182821017156123255761232561227b565b604052919050565b600082601f83011261233e57600080fd5b81356001600160401b038111156123575761235761227b565b61236a601f8201601f19166020016122fd565b81815284602083860101111561237f57600080fd5b816020850160208301376000918101602001919091529392505050565b6000602082840312156123ae57600080fd5b81356001600160401b038111156123c457600080fd5b6123d08482850161232d565b949350505050565b6000602082840312156123ea57600080fd5b5035919050565b6000806040838503121561240457600080fd5b82356001600160401b0381111561241a57600080fd5b6124268582860161232d565b95602094909401359450505050565b803563ffffffff8116811461221657600080fd5b80356001600160a01b038116811461221657600080fd5b60008060006060848603121561247557600080fd5b61247e84612435565b925061248c60208501612435565b915061249a60408501612449565b90509250925092565b60008083601f8401126124b557600080fd5b5081356001600160401b038111156124cc57600080fd5b6020830191508360208285010111156124e457600080fd5b9250929050565b60008060008060008060008060008060c08b8d03121561250a57600080fd5b8a35995060208b01356001600160401b038082111561252857600080fd5b6125348e838f016124a3565b909b50995060408d013591508082111561254d57600080fd5b6125598e838f016124a3565b909950975060608d013591508082111561257257600080fd5b61257e8e838f016124a3565b909750955060808d013591508082111561259757600080fd5b506125a48d828e016124a3565b9150809450508092505060a08b013590509295989b9194979a5092959850565b60008060008060008060006080888a0312156125df57600080fd5b8735965060208801356001600160401b03808211156125fd57600080fd5b6126098b838c016124a3565b909850965060408a013591508082111561262257600080fd5b61262e8b838c016124a3565b909650945060608a013591508082111561264757600080fd5b506126548a828b016124a3565b989b979a50959850939692959293505050565b6000806040838503121561267a57600080fd5b50508035926020909101359150565b80356001600160401b038116811461221657600080fd5b6000602082840312156126b257600080fd5b6126bb82612689565b9392505050565b60005b838110156126dd5781810151838201526020016126c5565b50506000910152565b600081518084526126fe8160208601602086016126c2565b601f01601f19169290920160200192915050565b6001600160a01b038616815260a060208201819052600090612736908301876126e6565b60408301959095525063ffffffff92909216606083015260809091015292915050565b60006001600160401b038211156127725761277261227b565b5060051b60200190565b600082601f83011261278d57600080fd5b813560206127a261279d83612759565b6122fd565b82815260059290921b840181019181810190868411156127c157600080fd5b8286015b848110156127dc57803583529183019183016127c5565b509695505050505050565b600080604083850312156127fa57600080fd5b82356001600160401b038082111561281157600080fd5b61281d8683870161277c565b9350602085013591508082111561283357600080fd5b506128408582860161277c565b9150509250929050565b6020815260006126bb60208301846126e6565b60008060006040848603121561287257600080fd5b61287b84612689565b925060208401356001600160401b0381111561289657600080fd5b6128a2868287016124a3565b9497909650939450505050565b600080604083850312156128c257600080fd5b82356001600160401b03808211156128d957600080fd5b6128e58683870161277c565b935060208501359150808211156128fb57600080fd5b506128408582860161232d565b600082601f83011261291957600080fd5b8135602061292961279d83612759565b82815260079290921b8401810191818101908684111561294857600080fd5b8286015b848110156127dc57608081890312156129655760008081fd5b61296d612291565b61297682612449565b81528482013585820152604061298d818401612435565b908201526060828101359082015283529183019160800161294c565b600060208083850312156129bc57600080fd5b82356001600160401b03808211156129d357600080fd5b90840190604082870312156129e757600080fd5b6129ef6122b9565b8235828111156129fe57600080fd5b8301601f81018813612a0f57600080fd5b8035612a1d61279d82612759565b81815260059190911b8201860190868101908a831115612a3c57600080fd5b8784015b83811015612ae357803587811115612a5757600080fd5b850160a0818e03601f19011215612a6e5760008081fd5b612a766122db565b612a818b8301612449565b8152604082013589811115612a965760008081fd5b612aa48f8d8386010161232d565b8c8301525060608083013560408301526080612ac1818501612435565b9183019190915260a09290920135918101919091528352918801918801612a40565b5084525050508284013582811115612afa57600080fd5b612b0688828601612908565b948201949094529695505050505050565b608081526000612b2a60808301876126e6565b6001600160a01b03958616602084015263ffffffff949094166040830152509216606090920191909152919050565b60008060008060008060608789031215612b7257600080fd5b86356001600160401b0380821115612b8957600080fd5b612b958a838b016124a3565b90985096506020890135915080821115612bae57600080fd5b612bba8a838b016124a3565b90965094506040890135915080821115612bd357600080fd5b50612be089828a016124a3565b979a9699509497509295939492505050565b60008060408385031215612c0557600080fd5b612c0e83612689565b9150612c1c60208401612449565b90509250929050565b8183823760009101908152919050565b81835281816020850137506000828201602090810191909152601f909101601f19169091010190565b89815260c060208201526000612c7860c083018a8c612c35565b8281036040840152612c8b81898b612c35565b90508660608401528281036080840152612ca6818688612c35565b9150508260a08301529a9950505050505050505050565b600060208284031215612ccf57600080fd5b815180151581146126bb57600080fd5b868152608060208201526000612cf9608083018789612c35565b8281036040840152612d0c818688612c35565b915050826060830152979650505050505050565b634e487b7160e01b600052603260045260246000fd5b634e487b7160e01b600052601160045260246000fd5b818103818111156117d4576117d4612d36565b600060208284031215612d7157600080fd5b81516001600160801b03811681146126bb57600080fd5b600060208284031215612d9a57600080fd5b5051919050565b600060018201612db357612db3612d36565b5060010190565b600181811c90821680612dce57607f821691505b602082108103612dee57634e487b7160e01b600052602260045260246000fd5b50919050565b600081518084526020808501945080840160005b83811015612e5357815180516001600160a01b03168852838101518489015260408082015163ffffffff16908901526060908101519088015260809096019590820190600101612e08565b509495945050505050565b600060208083526060808401855160408085880152828251808552608094508489019150848160051b8a0101878501945060005b82811015612eff578a8203607f19018452855180516001600160a01b031683528981015160a08b850181905290612ecb828601826126e6565b83890151868a01528b84015163ffffffff168c870152928a0151948a01949094525095890195938901939150600101612e92565b50968a0151898803601f1901848b015296612f1a8189612df4565b9b9a5050505050505050505050565b606081526000808554612f3b81612dba565b8060608601526080600180841660008114612f5d5760018114612f7757612fa8565b60ff1985168884015283151560051b880183019550612fa8565b8a60005260208060002060005b86811015612f9f5781548b8201870152908401908201612f84565b8a018501975050505b50505050508281036020840152612fbf81866126e6565b90508281036040840152612fd381856126e6565b9695505050505050565b808201808211156117d4576117d4612d36565b601f82111561303657600081815260208120601f850160051c810160208610156130175750805b601f850160051c820191505b81811015611b5b57828155600101613023565b505050565b6001600160401b038311156130525761305261227b565b613066836130608354612dba565b83612ff0565b6000601f84116001811461309a57600085156130825750838201355b600019600387901b1c1916600186901b1783556130f4565b600083815260209020601f19861690835b828110156130cb57868501358255602094850194600190920191016130ab565b50868210156130e85760001960f88860031b161c19848701351681555b505060018560011b0183555b5050505050565b80820281158282048414176117d4576117d4612d36565b60208082526024908201527f496e64657841676772656761746f723a20546f6b656e2076616c7565206973206040820152637a65726f60e01b606082015260800190565b600082516131688184602087016126c2565b9190910192915050565b81516001600160401b0381111561318b5761318b61227b565b61319f816131998454612dba565b84612ff0565b602080601f8311600181146131d457600084156131bc5750858301515b600019600386901b1c1916600185901b178555611b5b565b600085815260208120601f198616915b82811015613203578886015182559484019460019091019084016131e4565b50858210156132215787850151600019600388901b60f8161c191681555b5050505050600190811b01905550565b634e487b7160e01b600052603160045260246000fd5b805169ffffffffffffffffffff8116811461221657600080fd5b600080600080600060a0868803121561327957600080fd5b61328286613247565b94506020860151935060408601519250606086015191506132a560808701613247565b90509295509295909350565b600181815b808511156132ec5781600019048211156132d2576132d2612d36565b808516156132df57918102915b93841c93908002906132b6565b509250929050565b600082613303575060016117d4565b81613310575060006117d4565b816001811461332657600281146133305761334c565b60019150506117d4565b60ff84111561334157613341612d36565b50506001821b6117d4565b5060208310610133831016604e8410600b841016171561336f575081810a6117d4565b61337983836132b1565b806000190482111561338d5761338d612d36565b029392505050565b60006126bb83836132f4565b634e487b7160e01b600052601260045260246000fd5b6000826133c6576133c66133a1565b500490565b600060ff8316806133de576133de6133a1565b8060ff84160491505092915050565b60ff81811683821602908116908181146121d9576121d9612d36565b60ff82811682821603908111156117d4576117d4612d36565b60ff81811683821601908111156117d4576117d4612d3656fea264697066735822122025752e3dad06df5b5d135b84985364d2ad941ec3162877ace1defe99013c547f64736f6c63430008110033",
  "devdoc": {
    "kind": "dev",
    "methods": {},
    "version": 1
  },
  "userdoc": {
    "kind": "user",
    "methods": {},
    "version": 1
  },
  "storageLayout": {
    "storage": [
      {
        "astId": 796,
        "contract": "contracts/IndexAggregator.sol:IndexAggregator",
        "label": "axelarGateway",
        "offset": 0,
        "slot": "0",
        "type": "t_contract(IAxelarGateway)514"
      },
      {
        "astId": 800,
        "contract": "contracts/IndexAggregator.sol:IndexAggregator",
        "label": "tokenInfo",
        "offset": 0,
        "slot": "1",
        "type": "t_array(t_struct(TokenInfo)746_storage)dyn_storage"
      },
      {
        "astId": 804,
        "contract": "contracts/IndexAggregator.sol:IndexAggregator",
        "label": "tmpTokens",
        "offset": 0,
        "slot": "2",
        "type": "t_array(t_struct(TokenInfo)746_storage)dyn_storage"
      },
      {
        "astId": 807,
        "contract": "contracts/IndexAggregator.sol:IndexAggregator",
        "label": "liquidityManager",
        "offset": 0,
        "slot": "3",
        "type": "t_contract(ILiquidityManager)719"
      },
      {
        "astId": 811,
        "contract": "contracts/IndexAggregator.sol:IndexAggregator",
        "label": "tokens",
        "offset": 0,
        "slot": "4",
        "type": "t_mapping(t_string_memory_ptr,t_uint256)"
      },
      {
        "astId": 814,
        "contract": "contracts/IndexAggregator.sol:IndexAggregator",
        "label": "tokenSymbols",
        "offset": 0,
        "slot": "5",
        "type": "t_array(t_string_storage)dyn_storage"
      },
      {
        "astId": 818,
        "contract": "contracts/IndexAggregator.sol:IndexAggregator",
        "label": "supplyMessages",
        "offset": 0,
        "slot": "6",
        "type": "t_array(t_struct(SupplyMessage)766_storage)dyn_storage"
      },
      {
        "astId": 822,
        "contract": "contracts/IndexAggregator.sol:IndexAggregator",
        "label": "liquidityMessages",
        "offset": 0,
        "slot": "7",
        "type": "t_array(t_struct(LiquidityMessage)757_storage)dyn_storage"
      },
      {
        "astId": 825,
        "contract": "contracts/IndexAggregator.sol:IndexAggregator",
        "label": "totalSupplies",
        "offset": 0,
        "slot": "8",
        "type": "t_array(t_uint256)dyn_storage"
      },
      {
        "astId": 828,
        "contract": "contracts/IndexAggregator.sol:IndexAggregator",
        "label": "liquidities",
        "offset": 0,
        "slot": "9",
        "type": "t_array(t_uint256)dyn_storage"
      },
      {
        "astId": 831,
        "contract": "contracts/IndexAggregator.sol:IndexAggregator",
        "label": "tokenParamsTimestampUpdates",
        "offset": 0,
        "slot": "10",
        "type": "t_array(t_uint256)dyn_storage"
      },
      {
        "astId": 836,
        "contract": "contracts/IndexAggregator.sol:IndexAggregator",
        "label": "movingAverage",
        "offset": 0,
        "slot": "11",
        "type": "t_mapping(t_uint256,t_array(t_uint256)dyn_storage)"
      },
      {
        "astId": 838,
        "contract": "contracts/IndexAggregator.sol:IndexAggregator",
        "label": "sampleSize",
        "offset": 0,
        "slot": "12",
        "type": "t_uint256"
      },
      {
        "astId": 840,
        "contract": "contracts/IndexAggregator.sol:IndexAggregator",
        "label": "timeWindow",
        "offset": 0,
        "slot": "13",
        "type": "t_uint256"
      },
      {
        "astId": 842,
        "contract": "contracts/IndexAggregator.sol:IndexAggregator",
        "label": "samplingFrequency",
        "offset": 0,
        "slot": "14",
        "type": "t_uint256"
      },
      {
        "astId": 844,
        "contract": "contracts/IndexAggregator.sol:IndexAggregator",
        "label": "lastSampleTime",
        "offset": 0,
        "slot": "15",
        "type": "t_uint256"
      },
      {
        "astId": 847,
        "contract": "contracts/IndexAggregator.sol:IndexAggregator",
        "label": "lastIndexOrder",
        "offset": 0,
        "slot": "16",
        "type": "t_array(t_uint256)dyn_storage"
      },
      {
        "astId": 852,
        "contract": "contracts/IndexAggregator.sol:IndexAggregator",
        "label": "tagsIndexOrder",
        "offset": 0,
        "slot": "17",
        "type": "t_mapping(t_string_memory_ptr,t_array(t_uint256)dyn_storage)"
      },
      {
        "astId": 856,
        "contract": "contracts/IndexAggregator.sol:IndexAggregator",
        "label": "tagsIndexTimestamp",
        "offset": 0,
        "slot": "18",
        "type": "t_mapping(t_string_memory_ptr,t_uint256)"
      },
      {
        "astId": 858,
        "contract": "contracts/IndexAggregator.sol:IndexAggregator",
        "label": "lastIndexTimestamp",
        "offset": 0,
        "slot": "19",
        "type": "t_uint256"
      },
      {
        "astId": 860,
        "contract": "contracts/IndexAggregator.sol:IndexAggregator",
        "label": "bribeUnit",
        "offset": 0,
        "slot": "20",
        "type": "t_uint256"
      },
      {
        "astId": 862,
        "contract": "contracts/IndexAggregator.sol:IndexAggregator",
        "label": "chainId",
        "offset": 0,
        "slot": "21",
        "type": "t_uint32"
      },
      {
        "astId": 864,
        "contract": "contracts/IndexAggregator.sol:IndexAggregator",
        "label": "mainChainId",
        "offset": 4,
        "slot": "21",
        "type": "t_uint32"
      },
      {
        "astId": 866,
        "contract": "contracts/IndexAggregator.sol:IndexAggregator",
        "label": "mainChainAddress",
        "offset": 8,
        "slot": "21",
        "type": "t_address"
      },
      {
        "astId": 869,
        "contract": "contracts/IndexAggregator.sol:IndexAggregator",
        "label": "sequenceId",
        "offset": 0,
        "slot": "22",
        "type": "t_uint256"
      },
      {
        "astId": 873,
        "contract": "contracts/IndexAggregator.sol:IndexAggregator",
        "label": "chainSelectorIdToSidechainAddress",
        "offset": 0,
        "slot": "23",
        "type": "t_mapping(t_uint64,t_address)"
      },
      {
        "astId": 877,
        "contract": "contracts/IndexAggregator.sol:IndexAggregator",
        "label": "chainSelectorIdToDestinationChain",
        "offset": 0,
        "slot": "24",
        "type": "t_mapping(t_uint64,t_string_storage)"
      }
    ],
    "types": {
      "t_address": {
        "encoding": "inplace",
        "label": "address",
        "numberOfBytes": "20"
      },
      "t_array(t_string_storage)dyn_storage": {
        "base": "t_string_storage",
        "encoding": "dynamic_array",
        "label": "string[]",
        "numberOfBytes": "32"
      },
      "t_array(t_struct(LiquidityMessage)757_storage)dyn_storage": {
        "base": "t_struct(LiquidityMessage)757_storage",
        "encoding": "dynamic_array",
        "label": "struct LiquidityMessage[]",
        "numberOfBytes": "32"
      },
      "t_array(t_struct(SupplyMessage)766_storage)dyn_storage": {
        "base": "t_struct(SupplyMessage)766_storage",
        "encoding": "dynamic_array",
        "label": "struct SupplyMessage[]",
        "numberOfBytes": "32"
      },
      "t_array(t_struct(TokenInfo)746_storage)dyn_storage": {
        "base": "t_struct(TokenInfo)746_storage",
        "encoding": "dynamic_array",
        "label": "struct TokenInfo[]",
        "numberOfBytes": "32"
      },
      "t_array(t_uint256)dyn_storage": {
        "base": "t_uint256",
        "encoding": "dynamic_array",
        "label": "uint256[]",
        "numberOfBytes": "32"
      },
      "t_contract(IAxelarGateway)514": {
        "encoding": "inplace",
        "label": "contract IAxelarGateway",
        "numberOfBytes": "20"
      },
      "t_contract(ILiquidityManager)719": {
        "encoding": "inplace",
        "label": "contract ILiquidityManager",
        "numberOfBytes": "20"
      },
      "t_mapping(t_string_memory_ptr,t_array(t_uint256)dyn_storage)": {
        "encoding": "mapping",
        "key": "t_string_memory_ptr",
        "label": "mapping(string => uint256[])",
        "numberOfBytes": "32",
        "value": "t_array(t_uint256)dyn_storage"
      },
      "t_mapping(t_string_memory_ptr,t_uint256)": {
        "encoding": "mapping",
        "key": "t_string_memory_ptr",
        "label": "mapping(string => uint256)",
        "numberOfBytes": "32",
        "value": "t_uint256"
      },
      "t_mapping(t_uint256,t_array(t_uint256)dyn_storage)": {
        "encoding": "mapping",
        "key": "t_uint256",
        "label": "mapping(uint256 => uint256[])",
        "numberOfBytes": "32",
        "value": "t_array(t_uint256)dyn_storage"
      },
      "t_mapping(t_uint64,t_address)": {
        "encoding": "mapping",
        "key": "t_uint64",
        "label": "mapping(uint64 => address)",
        "numberOfBytes": "32",
        "value": "t_address"
      },
      "t_mapping(t_uint64,t_string_storage)": {
        "encoding": "mapping",
        "key": "t_uint64",
        "label": "mapping(uint64 => string)",
        "numberOfBytes": "32",
        "value": "t_string_storage"
      },
      "t_string_memory_ptr": {
        "encoding": "bytes",
        "label": "string",
        "numberOfBytes": "32"
      },
      "t_string_storage": {
        "encoding": "bytes",
        "label": "string",
        "numberOfBytes": "32"
      },
      "t_struct(LiquidityMessage)757_storage": {
        "encoding": "inplace",
        "label": "struct LiquidityMessage",
        "members": [
          {
            "astId": 748,
            "contract": "contracts/IndexAggregator.sol:IndexAggregator",
            "label": "token",
            "offset": 0,
            "slot": "0",
            "type": "t_address"
          },
          {
            "astId": 750,
            "contract": "contracts/IndexAggregator.sol:IndexAggregator",
            "label": "tokenDemonination",
            "offset": 0,
            "slot": "1",
            "type": "t_string_storage"
          },
          {
            "astId": 752,
            "contract": "contracts/IndexAggregator.sol:IndexAggregator",
            "label": "liquidity",
            "offset": 0,
            "slot": "2",
            "type": "t_uint256"
          },
          {
            "astId": 754,
            "contract": "contracts/IndexAggregator.sol:IndexAggregator",
            "label": "chainId",
            "offset": 0,
            "slot": "3",
            "type": "t_uint32"
          },
          {
            "astId": 756,
            "contract": "contracts/IndexAggregator.sol:IndexAggregator",
            "label": "timestamp",
            "offset": 0,
            "slot": "4",
            "type": "t_uint256"
          }
        ],
        "numberOfBytes": "160"
      },
      "t_struct(SupplyMessage)766_storage": {
        "encoding": "inplace",
        "label": "struct SupplyMessage",
        "members": [
          {
            "astId": 759,
            "contract": "contracts/IndexAggregator.sol:IndexAggregator",
            "label": "token",
            "offset": 0,
            "slot": "0",
            "type": "t_address"
          },
          {
            "astId": 761,
            "contract": "contracts/IndexAggregator.sol:IndexAggregator",
            "label": "supply",
            "offset": 0,
            "slot": "1",
            "type": "t_uint256"
          },
          {
            "astId": 763,
            "contract": "contracts/IndexAggregator.sol:IndexAggregator",
            "label": "chainId",
            "offset": 0,
            "slot": "2",
            "type": "t_uint32"
          },
          {
            "astId": 765,
            "contract": "contracts/IndexAggregator.sol:IndexAggregator",
            "label": "timestamp",
            "offset": 0,
            "slot": "3",
            "type": "t_uint256"
          }
        ],
        "numberOfBytes": "128"
      },
      "t_struct(TokenInfo)746_storage": {
        "encoding": "inplace",
        "label": "struct TokenInfo",
        "members": [
          {
            "astId": 736,
            "contract": "contracts/IndexAggregator.sol:IndexAggregator",
            "label": "_symbol",
            "offset": 0,
            "slot": "0",
            "type": "t_string_storage"
          },
          {
            "astId": 738,
            "contract": "contracts/IndexAggregator.sol:IndexAggregator",
            "label": "_address",
            "offset": 0,
            "slot": "1",
            "type": "t_address"
          },
          {
            "astId": 740,
            "contract": "contracts/IndexAggregator.sol:IndexAggregator",
            "label": "_chainId",
            "offset": 20,
            "slot": "1",
            "type": "t_uint32"
          },
          {
            "astId": 742,
            "contract": "contracts/IndexAggregator.sol:IndexAggregator",
            "label": "_aggregator",
            "offset": 0,
            "slot": "2",
            "type": "t_address"
          },
          {
            "astId": 745,
            "contract": "contracts/IndexAggregator.sol:IndexAggregator",
            "label": "_tags",
            "offset": 0,
            "slot": "3",
            "type": "t_array(t_string_storage)dyn_storage"
          }
        ],
        "numberOfBytes": "128"
      },
      "t_uint256": {
        "encoding": "inplace",
        "label": "uint256",
        "numberOfBytes": "32"
      },
      "t_uint32": {
        "encoding": "inplace",
        "label": "uint32",
        "numberOfBytes": "4"
      },
      "t_uint64": {
        "encoding": "inplace",
        "label": "uint64",
        "numberOfBytes": "8"
      }
    }
  }
}