{
  "address": "0x6c6CF07580344CA3a7D49a5Db41C39B9C343efe2",
  "abi": [
    {
      "inputs": [
        {
          "components": [
            {
              "internalType": "string",
              "name": "_symbol",
              "type": "string"
            },
            {
              "internalType": "address",
              "name": "_address",
              "type": "address"
            },
            {
              "internalType": "uint32",
              "name": "_chainId",
              "type": "uint32"
            },
            {
              "internalType": "address",
              "name": "_aggregator",
              "type": "address"
            },
            {
              "internalType": "string[]",
              "name": "_tags",
              "type": "string[]"
            }
          ],
          "internalType": "struct TokenInfo[]",
          "name": "_tokenInfo",
          "type": "tuple[]"
        },
        {
          "internalType": "address",
          "name": "_liquidityManager",
          "type": "address"
        },
        {
          "internalType": "address",
          "name": "_axelarGateway",
          "type": "address"
        },
        {
          "components": [
            {
              "internalType": "uint256",
              "name": "_timeWindow",
              "type": "uint256"
            },
            {
              "internalType": "uint256",
              "name": "_sampleSize",
              "type": "uint256"
            },
            {
              "internalType": "uint256",
              "name": "_bribeUnit",
              "type": "uint256"
            }
          ],
          "internalType": "struct AggregatorParams",
          "name": "_aggregatorParams",
          "type": "tuple"
        }
      ],
      "stateMutability": "nonpayable",
      "type": "constructor"
    },
    {
      "inputs": [],
      "name": "InvalidAddress",
      "type": "error"
    },
    {
      "inputs": [],
      "name": "NotApprovedByGateway",
      "type": "error"
    },
    {
      "inputs": [],
      "name": "bribeUnit",
      "outputs": [
        {
          "internalType": "uint256",
          "name": "",
          "type": "uint256"
        }
      ],
      "stateMutability": "view",
      "type": "function"
    },
    {
      "inputs": [],
      "name": "chainId",
      "outputs": [
        {
          "internalType": "uint32",
          "name": "",
          "type": "uint32"
        }
      ],
      "stateMutability": "view",
      "type": "function"
    },
    {
      "inputs": [
        {
          "internalType": "uint64",
          "name": "",
          "type": "uint64"
        }
      ],
      "name": "chainSelectorIdToDestinationChain",
      "outputs": [
        {
          "internalType": "string",
          "name": "",
          "type": "string"
        }
      ],
      "stateMutability": "view",
      "type": "function"
    },
    {
      "inputs": [
        {
          "internalType": "uint64",
          "name": "",
          "type": "uint64"
        }
      ],
      "name": "chainSelectorIdToSidechainAddress",
      "outputs": [
        {
          "internalType": "address",
          "name": "",
          "type": "address"
        }
      ],
      "stateMutability": "view",
      "type": "function"
    },
    {
      "inputs": [],
      "name": "checkTokenParams",
      "outputs": [],
      "stateMutability": "nonpayable",
      "type": "function"
    },
    {
      "inputs": [],
      "name": "collectPriceFeeds",
      "outputs": [],
      "stateMutability": "nonpayable",
      "type": "function"
    },
    {
      "inputs": [
        {
          "internalType": "bytes32",
          "name": "commandId",
          "type": "bytes32"
        },
        {
          "internalType": "string",
          "name": "sourceChain",
          "type": "string"
        },
        {
          "internalType": "string",
          "name": "sourceAddress",
          "type": "string"
        },
        {
          "internalType": "bytes",
          "name": "payload",
          "type": "bytes"
        }
      ],
      "name": "execute",
      "outputs": [],
      "stateMutability": "nonpayable",
      "type": "function"
    },
    {
      "inputs": [
        {
          "internalType": "bytes32",
          "name": "commandId",
          "type": "bytes32"
        },
        {
          "internalType": "string",
          "name": "sourceChain",
          "type": "string"
        },
        {
          "internalType": "string",
          "name": "sourceAddress",
          "type": "string"
        },
        {
          "internalType": "bytes",
          "name": "payload",
          "type": "bytes"
        },
        {
          "internalType": "string",
          "name": "tokenSymbol",
          "type": "string"
        },
        {
          "internalType": "uint256",
          "name": "amount",
          "type": "uint256"
        }
      ],
      "name": "executeWithToken",
      "outputs": [],
      "stateMutability": "nonpayable",
      "type": "function"
    },
    {
      "inputs": [],
      "name": "gateway",
      "outputs": [
        {
          "internalType": "contract IAxelarGateway",
          "name": "",
          "type": "address"
        }
      ],
      "stateMutability": "view",
      "type": "function"
    },
    {
      "inputs": [],
      "name": "getCollectPriceFeedsSeq",
      "outputs": [
        {
          "internalType": "uint256",
          "name": "",
          "type": "uint256"
        }
      ],
      "stateMutability": "nonpayable",
      "type": "function"
    },
    {
      "inputs": [],
      "name": "isMainChain",
      "outputs": [
        {
          "internalType": "bool",
          "name": "",
          "type": "bool"
        }
      ],
      "stateMutability": "view",
      "type": "function"
    },
    {
      "inputs": [
        {
          "internalType": "uint256",
          "name": "",
          "type": "uint256"
        }
      ],
      "name": "lastIndexOrder",
      "outputs": [
        {
          "internalType": "uint256",
          "name": "",
          "type": "uint256"
        }
      ],
      "stateMutability": "view",
      "type": "function"
    },
    {
      "inputs": [],
      "name": "lastIndexTimestamp",
      "outputs": [
        {
          "internalType": "uint256",
          "name": "",
          "type": "uint256"
        }
      ],
      "stateMutability": "view",
      "type": "function"
    },
    {
      "inputs": [
        {
          "internalType": "uint256",
          "name": "",
          "type": "uint256"
        }
      ],
      "name": "liquidities",
      "outputs": [
        {
          "internalType": "uint256",
          "name": "",
          "type": "uint256"
        }
      ],
      "stateMutability": "view",
      "type": "function"
    },
    {
      "inputs": [],
      "name": "liquidityManager",
      "outputs": [
        {
          "internalType": "contract ILiquidityManager",
          "name": "",
          "type": "address"
        }
      ],
      "stateMutability": "view",
      "type": "function"
    },
    {
      "inputs": [
        {
          "internalType": "uint256",
          "name": "",
          "type": "uint256"
        }
      ],
      "name": "liquidityMessages",
      "outputs": [
        {
          "internalType": "address",
          "name": "token",
          "type": "address"
        },
        {
          "internalType": "string",
          "name": "tokenDemonination",
          "type": "string"
        },
        {
          "internalType": "uint256",
          "name": "liquidity",
          "type": "uint256"
        },
        {
          "internalType": "uint32",
          "name": "chainId",
          "type": "uint32"
        },
        {
          "internalType": "uint256",
          "name": "timestamp",
          "type": "uint256"
        }
      ],
      "stateMutability": "view",
      "type": "function"
    },
    {
      "inputs": [],
      "name": "mainChainId",
      "outputs": [
        {
          "internalType": "uint32",
          "name": "",
          "type": "uint32"
        }
      ],
      "stateMutability": "view",
      "type": "function"
    },
    {
      "inputs": [
        {
          "internalType": "uint256",
          "name": "",
          "type": "uint256"
        },
        {
          "internalType": "uint256",
          "name": "",
          "type": "uint256"
        }
      ],
      "name": "movingAverage",
      "outputs": [
        {
          "internalType": "uint256",
          "name": "",
          "type": "uint256"
        }
      ],
      "stateMutability": "view",
      "type": "function"
    },
    {
      "inputs": [
        {
          "internalType": "uint256[]",
          "name": "indexOrders",
          "type": "uint256[]"
        },
        {
          "internalType": "string",
          "name": "tag",
          "type": "string"
        }
      ],
      "name": "persistIndex",
      "outputs": [
        {
          "internalType": "bool",
          "name": "",
          "type": "bool"
        }
      ],
      "stateMutability": "nonpayable",
      "type": "function"
    },
    {
      "inputs": [
        {
          "internalType": "string",
          "name": "sourceChain_",
          "type": "string"
        },
        {
          "internalType": "string",
          "name": "sourceAddress_",
          "type": "string"
        },
        {
          "internalType": "bytes",
          "name": "payload_",
          "type": "bytes"
        }
      ],
      "name": "pullexecute",
      "outputs": [],
      "stateMutability": "nonpayable",
      "type": "function"
    },
    {
      "inputs": [
        {
          "components": [
            {
              "components": [
                {
                  "internalType": "address",
                  "name": "token",
                  "type": "address"
                },
                {
                  "internalType": "string",
                  "name": "tokenDemonination",
                  "type": "string"
                },
                {
                  "internalType": "uint256",
                  "name": "liquidity",
                  "type": "uint256"
                },
                {
                  "internalType": "uint32",
                  "name": "chainId",
                  "type": "uint32"
                },
                {
                  "internalType": "uint256",
                  "name": "timestamp",
                  "type": "uint256"
                }
              ],
              "internalType": "struct LiquidityMessage[]",
              "name": "liquidityMessages",
              "type": "tuple[]"
            },
            {
              "components": [
                {
                  "internalType": "address",
                  "name": "token",
                  "type": "address"
                },
                {
                  "internalType": "uint256",
                  "name": "supply",
                  "type": "uint256"
                },
                {
                  "internalType": "uint32",
                  "name": "chainId",
                  "type": "uint32"
                },
                {
                  "internalType": "uint256",
                  "name": "timestamp",
                  "type": "uint256"
                }
              ],
              "internalType": "struct SupplyMessage[]",
              "name": "supplyMessages",
              "type": "tuple[]"
            }
          ],
          "internalType": "struct IndexUpdateMessage",
          "name": "indexMessage",
          "type": "tuple"
        }
      ],
      "name": "receiveFromAxelar",
      "outputs": [],
      "stateMutability": "nonpayable",
      "type": "function"
    },
    {
      "inputs": [
        {
          "internalType": "uint32",
          "name": "_chainId",
          "type": "uint32"
        },
        {
          "internalType": "uint32",
          "name": "_mainChainId",
          "type": "uint32"
        },
        {
          "internalType": "address",
          "name": "_mainChainAddress",
          "type": "address"
        }
      ],
      "name": "setChainId",
      "outputs": [],
      "stateMutability": "nonpayable",
      "type": "function"
    },
    {
      "inputs": [
        {
          "internalType": "uint64",
          "name": "chainSelectorId",
          "type": "uint64"
        },
        {
          "internalType": "string",
          "name": "destinationChain",
          "type": "string"
        }
      ],
      "name": "setDestinationChain",
      "outputs": [],
      "stateMutability": "nonpayable",
      "type": "function"
    },
    {
      "inputs": [
        {
          "internalType": "uint64",
          "name": "chainSelectorId",
          "type": "uint64"
        },
        {
          "internalType": "address",
          "name": "sideChainAddress",
          "type": "address"
        }
      ],
      "name": "setSideChainAddress",
      "outputs": [],
      "stateMutability": "nonpayable",
      "type": "function"
    },
    {
      "inputs": [
        {
          "internalType": "uint256",
          "name": "",
          "type": "uint256"
        }
      ],
      "name": "supplyMessages",
      "outputs": [
        {
          "internalType": "address",
          "name": "token",
          "type": "address"
        },
        {
          "internalType": "uint256",
          "name": "supply",
          "type": "uint256"
        },
        {
          "internalType": "uint32",
          "name": "chainId",
          "type": "uint32"
        },
        {
          "internalType": "uint256",
          "name": "timestamp",
          "type": "uint256"
        }
      ],
      "stateMutability": "view",
      "type": "function"
    },
    {
      "inputs": [
        {
          "internalType": "string",
          "name": "",
          "type": "string"
        },
        {
          "internalType": "uint256",
          "name": "",
          "type": "uint256"
        }
      ],
      "name": "tagsIndexOrder",
      "outputs": [
        {
          "internalType": "uint256",
          "name": "",
          "type": "uint256"
        }
      ],
      "stateMutability": "view",
      "type": "function"
    },
    {
      "inputs": [
        {
          "internalType": "string",
          "name": "",
          "type": "string"
        }
      ],
      "name": "tagsIndexTimestamp",
      "outputs": [
        {
          "internalType": "uint256",
          "name": "",
          "type": "uint256"
        }
      ],
      "stateMutability": "view",
      "type": "function"
    },
    {
      "inputs": [],
      "name": "tokenCount",
      "outputs": [
        {
          "internalType": "uint256",
          "name": "",
          "type": "uint256"
        }
      ],
      "stateMutability": "view",
      "type": "function"
    },
    {
      "inputs": [
        {
          "internalType": "uint256",
          "name": "",
          "type": "uint256"
        }
      ],
      "name": "tokenInfo",
      "outputs": [
        {
          "internalType": "string",
          "name": "_symbol",
          "type": "string"
        },
        {
          "internalType": "address",
          "name": "_address",
          "type": "address"
        },
        {
          "internalType": "uint32",
          "name": "_chainId",
          "type": "uint32"
        },
        {
          "internalType": "address",
          "name": "_aggregator",
          "type": "address"
        }
      ],
      "stateMutability": "view",
      "type": "function"
    },
    {
      "inputs": [
        {
          "internalType": "uint256",
          "name": "",
          "type": "uint256"
        }
      ],
      "name": "tokenParamsTimestampUpdates",
      "outputs": [
        {
          "internalType": "uint256",
          "name": "",
          "type": "uint256"
        }
      ],
      "stateMutability": "view",
      "type": "function"
    },
    {
      "inputs": [
        {
          "internalType": "uint256",
          "name": "",
          "type": "uint256"
        }
      ],
      "name": "tokenSymbols",
      "outputs": [
        {
          "internalType": "string",
          "name": "",
          "type": "string"
        }
      ],
      "stateMutability": "view",
      "type": "function"
    },
    {
      "inputs": [
        {
          "internalType": "string",
          "name": "",
          "type": "string"
        }
      ],
      "name": "tokens",
      "outputs": [
        {
          "internalType": "uint256",
          "name": "",
          "type": "uint256"
        }
      ],
      "stateMutability": "view",
      "type": "function"
    },
    {
      "inputs": [
        {
          "internalType": "uint256",
          "name": "",
          "type": "uint256"
        }
      ],
      "name": "totalSupplies",
      "outputs": [
        {
          "internalType": "uint256",
          "name": "",
          "type": "uint256"
        }
      ],
      "stateMutability": "view",
      "type": "function"
    },
    {
      "inputs": [
        {
          "internalType": "uint256[]",
          "name": "_totalSupplies",
          "type": "uint256[]"
        },
        {
          "internalType": "uint256[]",
          "name": "_liquidities",
          "type": "uint256[]"
        }
      ],
      "name": "updateTokenParams",
      "outputs": [],
      "stateMutability": "nonpayable",
      "type": "function"
    }
  ],
  "transactionHash": "0x64332e0eaf19b3ee0ff08390d59caf518e0dc5c756a11b0830636d523a4d45af",
  "args": [
    [
      {
        "_symbol": "uni",
        "_address": "0x2d09B2F2392F779F1DAe37Cff2A26454F2f5A205",
        "_chainId": "11155111",
        "_aggregator": "0x51A29d54F09200f064Dd8657498dcc9d5b3AFec7",
        "_tags": [
          "governance"
        ]
      },
      {
        "_symbol": "mkr",
        "_address": "0x5065510427b04E199c61dEeE91fD600520eA76Dd",
        "_chainId": "11155111",
        "_aggregator": "0xb973c1ff930f796Afe8fe25e50FFF59e986517Fa",
        "_tags": [
          "governance"
        ]
      },
      {
        "_symbol": "aave",
        "_address": "0x38D86878696D92a737471b5A0cF2D9170Cf97716",
        "_chainId": "11155111",
        "_aggregator": "0x8034216804c8aC6eEB305f8189FCfE78A9634552",
        "_tags": [
          "governance"
        ]
      },
      {
        "_symbol": "snx",
        "_address": "0xdf8F7169b3bab437DBcc66A85683Fb833125375E",
        "_chainId": "11155111",
        "_aggregator": "0xF46a790305B64f1f96767aD13E9131f571cf048a",
        "_tags": [
          "governance"
        ]
      },
      {
        "_symbol": "comp",
        "_address": "0x10A855E153BC5f64e1802Ca015aF00da7255235e",
        "_chainId": "11155111",
        "_aggregator": "0xCF98E09c3e42345571ecF5B4AF18110C9eafd465",
        "_tags": [
          "governance"
        ]
      },
      {
        "_symbol": "solo",
        "_address": "0xC4D4e40eDf442Be21FdEfeA42f92D20d5155d88D",
        "_chainId": "11155111",
        "_aggregator": "0xf70FEf57181b289D701B1888ca7063c9Ca851215",
        "_tags": [
          "governance"
        ]
      },
      {
        "_symbol": "sec",
        "_address": "0x923FD2B4B27132aBEbb21E0b8d58ddDD4F67aD41",
        "_chainId": "11155111",
        "_aggregator": "0x20444F322055E4fe86C60c33aA6D99C67191e515",
        "_tags": [
          "governance"
        ]
      },
      {
        "_symbol": "xrpaynet",
        "_address": "0xC4E917dE3f75fc1D4b00577D2ECeE3FBcf1949bF",
        "_chainId": "11155111",
        "_aggregator": "0x43354ffb6acAF534c79050aAD23Cd625d86163aA",
        "_tags": [
          "governance"
        ]
      },
      {
        "_symbol": "xrph",
        "_address": "0x96AaAd93F59d04f8f642Dc546afACe3A673C8F44",
        "_chainId": "11155111",
        "_aggregator": "0xd86AdfD802cd74203ED00892151cfe9c832ea29f",
        "_tags": [
          "governance"
        ]
      },
      {
        "_symbol": "ghost",
        "_address": "0xDfCDE448D6874395ff4Bc90cB309A009E4463BB0",
        "_chainId": "11155111",
        "_aggregator": "0x1e4Da9411e221AF1B5F03dFE4d3D8586fe4F9933",
        "_tags": [
          "governance"
        ]
      },
      {
        "_symbol": "cny",
        "_address": "0x05da0a50a0152E52939D216dc42aBfE2bbE45059",
        "_chainId": "11155111",
        "_aggregator": "0x71B422F08E6B2F46b0FA638f15bbdE4274a210D8",
        "_tags": [
          "governance"
        ]
      },
      {
        "_symbol": "xgo",
        "_address": "0x73317A2FcC924D50b41d912f211F6bAEa148f77C",
        "_chainId": "11155111",
        "_aggregator": "0x8ce1ECD345b87f69366CaCE92353247d290387db",
        "_tags": [
          "governance"
        ]
      },
      {
        "_symbol": "ctf",
        "_address": "0xD5dcA95f992D254108f939f6C8705c640C0cb9ee",
        "_chainId": "11155111",
        "_aggregator": "0x1d9cD381ddF89eBcD60a373049828461Ed696F88",
        "_tags": [
          "governance"
        ]
      },
      {
        "_symbol": "mxi",
        "_address": "0x7340846AB500a6d442268203dD2E001b178f4dFc",
        "_chainId": "11155111",
        "_aggregator": "0x3A7897dCCFC5F61895fA0F6e560644B356125056",
        "_tags": [
          "governance"
        ]
      },
      {
        "_symbol": "btckyc",
        "_address": "0x2DA41D7A9d6214233fB13f1b4cA0A6fce14Fce60",
        "_chainId": "11155111",
        "_aggregator": "0x0DC00CCF27C6c154B3b2E8b68563874901d0a444",
        "_tags": [
          "governance"
        ]
      },
      {
        "_symbol": "csc",
        "_address": "0x2b30BFCE0Dc201fC0Ca686843BceC1574403799a",
        "_chainId": "11155111",
        "_aggregator": "0x74e41a331873992c23207f5e6b1A65465Ef9AAfD",
        "_tags": [
          "governance"
        ]
      },
      {
        "_symbol": "core",
        "_address": "0x4B2b4443DDa99Cd3e03c53779549E9A0f213828b",
        "_chainId": "11155111",
        "_aggregator": "0x5e6114b0dA73BE13cee7DB0d97DFF8612e9Ce15a",
        "_tags": [
          "governance"
        ]
      },
      {
        "_symbol": "usdkyc",
        "_address": "0x52a57341ce681eEfa9Fa13F12C7d3422EcAfd5a7",
        "_chainId": "11155111",
        "_aggregator": "0x69FFd8C6158403b7a142155612B6Fd61bdB90bb7",
        "_tags": [
          "governance"
        ]
      }
    ],
    "0x824d44705267Cc201bA9fE9Be0D0348E3D9e9d22",
    "0xBDb61affDA4490B9e962b542cfb212ec50D1AC0C",
    {
      "_timeWindow": 60,
      "_sampleSize": 30,
      "_bribeUnit": "50000000000000000"
    }
  ],
  "numDeployments": 7,
  "solcInputHash": "393d6cdcc7f5b35b38e4b4cd28ae07a5",
  "bytecode": "0x60a0604052600060165560006017553480156200001b57600080fd5b5060405162003d5938038062003d598339810160408190526200003e91620005fe565b816001600160a01b038116620000675760405163e6c4247b60e01b815260040160405180910390fd5b6001600160a01b03166080526020810151600c8190558151600d8190556200009091906200079c565b600e556040810151601455600080546001600160a01b038085166001600160a01b0319928316178355600380549187169190921617905584516017555b601754811015620002d2576001858281518110620000ef57620000ef620007bf565b6020908102919091018101518254600181018455600093845291909220825160049092020190819062000123908262000864565b50602082810151600183018054604086015163ffffffff16600160a01b026001600160c01b03199091166001600160a01b03938416171790556060840151600284018054919092166001600160a01b03199190911617905560808301518051620001949260038501920190620002dd565b5050506005858281518110620001ae57620001ae620007bf565b6020908102919091018101515182546001810184556000938452919092200190620001da908262000864565b50806004868381518110620001f357620001f3620007bf565b6020026020010151600001516040516200020e919062000930565b9081526020016040518091039020819055506008858281518110620002375762000237620007bf565b6020026020010151602001516001600160a01b03166318160ddd6040518163ffffffff1660e01b8152600401602060405180830381865afa15801562000281573d6000803e3d6000fd5b505050506040513d601f19601f82011682018060405250810190620002a791906200094e565b8154600181018355600092835260209092209091015580620002c98162000968565b915050620000cd565b505050505062000990565b82805482825590600052602060002090810192821562000328579160200282015b8281111562000328578251829062000317908262000864565b5091602001919060010190620002fe565b50620003369291506200033a565b5090565b80821115620003365760006200035182826200035b565b506001016200033a565b5080546200036990620007d5565b6000825580601f106200037a575050565b601f0160209004906000526020600020908101906200039a91906200039d565b50565b5b808211156200033657600081556001016200039e565b634e487b7160e01b600052604160045260246000fd5b60405160a081016001600160401b0381118282101715620003ef57620003ef620003b4565b60405290565b604051601f8201601f191681016001600160401b0381118282101715620004205762000420620003b4565b604052919050565b60006001600160401b03821115620004445762000444620003b4565b5060051b60200190565b60005b838110156200046b57818101518382015260200162000451565b50506000910152565b600082601f8301126200048657600080fd5b81516001600160401b03811115620004a257620004a2620003b4565b620004b7601f8201601f1916602001620003f5565b818152846020838601011115620004cd57600080fd5b620004e08260208301602087016200044e565b949350505050565b80516001600160a01b03811681146200050057600080fd5b919050565b600082601f8301126200051757600080fd5b81516020620005306200052a8362000428565b620003f5565b82815260059290921b840181019181810190868411156200055057600080fd5b8286015b84811015620005945780516001600160401b03811115620005755760008081fd5b620005858986838b010162000474565b84525091830191830162000554565b509695505050505050565b600060608284031215620005b257600080fd5b604051606081016001600160401b0381118282101715620005d757620005d7620003b4565b80604052508091508251815260208301516020820152604083015160408201525092915050565b60008060008060c085870312156200061557600080fd5b84516001600160401b03808211156200062d57600080fd5b818701915087601f8301126200064257600080fd5b8151620006536200052a8262000428565b8082825260208201915060208360051b86010192508a8311156200067657600080fd5b602085015b8381101562000759578051858111156200069457600080fd5b860160a0818e03601f19011215620006ab57600080fd5b620006b5620003ca565b602082015187811115620006c857600080fd5b620006d98f60208386010162000474565b825250620006ea60408301620004e8565b6020820152606082015163ffffffff811681146200070757600080fd5b60408201526200071a60808301620004e8565b606082015260a0820151878111156200073257600080fd5b620007438f60208386010162000505565b608083015250845250602092830192016200067b565b5080985050505050506200077060208601620004e8565b92506200078060408601620004e8565b91506200079186606087016200059f565b905092959194509250565b600082620007ba57634e487b7160e01b600052601260045260246000fd5b500490565b634e487b7160e01b600052603260045260246000fd5b600181811c90821680620007ea57607f821691505b6020821081036200080b57634e487b7160e01b600052602260045260246000fd5b50919050565b601f8211156200085f57600081815260208120601f850160051c810160208610156200083a5750805b601f850160051c820191505b818110156200085b5782815560010162000846565b5050505b505050565b81516001600160401b03811115620008805762000880620003b4565b6200089881620008918454620007d5565b8462000811565b602080601f831160018114620008d05760008415620008b75750858301515b600019600386901b1c1916600185901b1785556200085b565b600085815260208120601f198616915b828110156200090157888601518255948401946001909101908401620008e0565b5085821015620009205787850151600019600388901b60f8161c191681555b5050505050600190811b01905550565b60008251620009448184602087016200044e565b9190910192915050565b6000602082840312156200096157600080fd5b5051919050565b6000600182016200098957634e487b7160e01b600052601160045260246000fd5b5060010190565b60805161339f620009ba6000396000818161028e015281816106930152610787015261339f6000f3fe608060405234801561001057600080fd5b50600436106102065760003560e01c806370875ec61161011a578063c7868013116100ad578063e1bbd9db1161007c578063e1bbd9db14610573578063eaeca51114610586578063f156ebf51461058e578063f7df834e14610597578063fe3480e4146105de57600080fd5b8063c786801314610521578063cc33c87514610534578063d440b45814610557578063d5bb61551461056057600080fd5b80639f181b5e116100e95780639f181b5e146104bf578063b547eccf146104c8578063b54fa474146104f3578063b834f6fb1461050657600080fd5b806370875ec61461043157806375ffdf5d146104445780639a8a0592146104675780639ec3cd031461047757600080fd5b8063338274381161019d5780636703a8da1161016c5780636703a8da146103ca57806369d7273d146103d257806369e3e4cd146103f65780636ccf03dc146104095780636e7ddea81461041157600080fd5b80633382743814610368578063491606581461037b5780635dc55ac21461038e57806365c3048e146103a157600080fd5b806316ee5b04116101d957806316ee5b04146102c85780631768bbe9146102db578063193e795e146103425780631a98b2e01461035557600080fd5b806304c2320b1461020b5780630713051d146102495780630f45ad431461025c578063116191b614610289575b600080fd5b61023661021936600461230e565b805160208183018101805160048252928201919093012091525481565b6040519081526020015b60405180910390f35b61023661025736600461234a565b6105f1565b60155461027490640100000000900463ffffffff1681565b60405163ffffffff9091168152602001610240565b6102b07f000000000000000000000000000000000000000000000000000000000000000081565b6040516001600160a01b039091168152602001610240565b6102366102d6366004612363565b610612565b6103406102e93660046123d2565b601580546001600160a01b03909216600160401b0268010000000000000000600160e01b031963ffffffff9485166401000000000267ffffffffffffffff1990941694909516939093179190911792909216179055565b005b61023661035036600461234a565b610652565b61034061036336600461245d565b610662565b6003546102b0906001600160a01b031681565b610340610389366004612536565b610756565b61023661039c3660046125d9565b61083e565b6102b06103af366004612612565b6018602052600090815260409020546001600160a01b031681565b61034061085a565b6103e56103e036600461234a565b610a5a565b604051610240959493929190612684565b610340610404366004612759565b610b37565b6102366113f5565b61042461041f36600461234a565b611417565b60405161024091906127bc565b61034061043f3660046127cf565b6114c3565b610457610452366004612821565b6114ec565b6040519015158152602001610240565b6015546102749063ffffffff1681565b61048a61048536600461234a565b611748565b604080516001600160a01b039095168552602085019390935263ffffffff909116918301919091526060820152608001610240565b61023660175481565b6102366104d636600461230e565b805160208183018101805160128252928201919093012091525481565b61023661050136600461234a565b611792565b601554640100000000810463ffffffff908116911614610457565b61034061052f36600461291b565b6117a2565b61054761054236600461234a565b6119de565b6040516102409493929190612a89565b61023660145481565b61034061056e366004612acb565b611abb565b61023661058136600461234a565b611ad1565b610340611ae1565b61023660135481565b6103406105a5366004612b64565b6001600160401b0391909116600090815260186020526040902080546001600160a01b0319166001600160a01b03909216919091179055565b6104246105ec366004612612565b611da6565b6009818154811061060157600080fd5b600091825260209091200154905081565b8151602081840181018051601182529282019185019190912091905280548290811061063d57600080fd5b90600052602060002001600091509150505481565b6010818154811061060157600080fd5b60008585604051610674929190612b97565b604051908190038120631876eed960e01b825291506001600160a01b037f00000000000000000000000000000000000000000000000000000000000000001690631876eed9906106d8908e908e908e908e908e9089908d908d908d90600401612bd0565b6020604051808303816000875af11580156106f7573d6000803e3d6000fd5b505050506040513d601f19601f8201168201806040525081019061071b9190612c2f565b61073857604051631403112d60e21b815260040160405180910390fd5b6107498a8a8a8a8a8a8a8a8a6113e9565b5050505050505050505050565b60008282604051610768929190612b97565b604051908190038120635f6970c360e01b825291506001600160a01b037f00000000000000000000000000000000000000000000000000000000000000001690635f6970c3906107c6908b908b908b908b908b908990600401612c51565b6020604051808303816000875af11580156107e5573d6000803e3d6000fd5b505050506040513d601f19601f820116820180604052508101906108099190612c2f565b61082657604051631403112d60e21b815260040160405180910390fd5b610834878787878787611dbf565b5050505050505050565b600b602052816000526040600020818154811061063d57600080fd5b60005b600154811015610a5757600d54600a828154811061087d5761087d612c92565b9060005260206000200154426108939190612cbe565b10610a4557600354600180546001600160a01b03909216916361566a3e9190849081106108c2576108c2612c92565b600091825260209091206004918202016001015460405160e084901b6001600160e01b03191681526001600160a01b0390911691810191909152602401602060405180830381865afa15801561091c573d6000803e3d6000fd5b505050506040513d601f19601f820116820180604052508101906109409190612cd1565b6001600160801b03166009828154811061095c5761095c612c92565b90600052602060002001819055506001818154811061097d5761097d612c92565b906000526020600020906004020160010160009054906101000a90046001600160a01b03166001600160a01b03166318160ddd6040518163ffffffff1660e01b8152600401602060405180830381865afa1580156109df573d6000803e3d6000fd5b505050506040513d601f19601f82011682018060405250810190610a039190612cfa565b60088281548110610a1657610a16612c92565b906000526020600020018190555042600a8281548110610a3857610a38612c92565b6000918252602090912001555b80610a4f81612d13565b91505061085d565b50565b60078181548110610a6a57600080fd5b6000918252602090912060059091020180546001820180546001600160a01b03909216935090610a9990612d2c565b80601f0160208091040260200160405190810160405280929190818152602001828054610ac590612d2c565b8015610b125780601f10610ae757610100808354040283529160200191610b12565b820191906000526020600020905b815481529060010190602001808311610af557829003601f168201915b50505050600283015460038401546004909401549293909263ffffffff909116915085565b60005b600154811015610d49576015546001805463ffffffff9092169183908110610b6457610b64612c92565b6000918252602090912060049091020160010154600160a01b900463ffffffff1603610d3757600354600180546001600160a01b03909216916361566a3e919084908110610bb457610bb4612c92565b600091825260209091206004918202016001015460405160e084901b6001600160e01b03191681526001600160a01b0390911691810191909152602401602060405180830381865afa158015610c0e573d6000803e3d6000fd5b505050506040513d601f19601f82011682018060405250810190610c329190612cd1565b6001600160801b031660098281548110610c4e57610c4e612c92565b906000526020600020018190555060018181548110610c6f57610c6f612c92565b906000526020600020906004020160010160009054906101000a90046001600160a01b03166001600160a01b03166318160ddd6040518163ffffffff1660e01b8152600401602060405180830381865afa158015610cd1573d6000803e3d6000fd5b505050506040513d601f19601f82011682018060405250810190610cf59190612cfa565b60088281548110610d0857610d08612c92565b906000526020600020018190555042600a8281548110610d2a57610d2a612c92565b6000918252602090912001555b80610d4181612d13565b915050610b3a565b5060155463ffffffff64010000000082048116911603610fc65760005b600854811015610e935760005b600154811015610e805760068281548110610d9057610d90612c92565b6000918252602090912060049091020154600180546001600160a01b039092169183908110610dc157610dc1612c92565b60009182526020909120600160049092020101546001600160a01b031603610e6e5760068281548110610df657610df6612c92565b90600052602060002090600402016001015460088281548110610e1b57610e1b612c92565b906000526020600020018190555060068281548110610e3c57610e3c612c92565b906000526020600020906004020160030154600a8281548110610e6157610e61612c92565b6000918252602090912001555b80610e7881612d13565b915050610d73565b5080610e8b81612d13565b915050610d66565b5060005b600954811015610fc45760005b600154811015610fb15760078281548110610ec157610ec1612c92565b6000918252602090912060059091020154600180546001600160a01b039092169183908110610ef257610ef2612c92565b60009182526020909120600160049092020101546001600160a01b031603610f9f5760078281548110610f2757610f27612c92565b90600052602060002090600502016002015460098281548110610f4c57610f4c612c92565b906000526020600020018190555060078281548110610f6d57610f6d612c92565b906000526020600020906005020160040154600a8281548110610f9257610f92612c92565b6000918252602090912001555b80610fa981612d13565b915050610ea4565b5080610fbc81612d13565b915050610e97565b505b601554640100000000810463ffffffff9081169116146113f1576001546000906001600160401b03811115610ffd57610ffd6121ed565b60405190808252806020026020018201604052801561104f57816020015b60408051608081018252600080825260208083018290529282018190526060820152825260001990920191018161101b5790505b506001549091506000906001600160401b03811115611070576110706121ed565b6040519080825280602002602001820160405280156110e257816020015b6110cf6040518060a0016040528060006001600160a01b031681526020016060815260200160008152602001600063ffffffff168152602001600081525090565b81526020019060019003908161108e5790505b50905060005b600154811015611323576001818154811061110557611105612c92565b600091825260209091206001600490920201015460155463ffffffff600160a01b90920482169116036113115760405180608001604052806001838154811061115057611150612c92565b6000918252602091829020600160049092020101546001600160a01b03168252875191019087908490811061118757611187612c92565b602090810291909101810151825260155463ffffffff16908201524260409091015283518490839081106111bd576111bd612c92565b60200260200101819052506040518060a00160405280600183815481106111e6576111e6612c92565b600091825260209182902060016004909202018101546001600160a01b03168352805492909101918490811061121e5761121e612c92565b9060005260206000209060040201600001805461123a90612d2c565b80601f016020809104026020016040519081016040528092919081815260200182805461126690612d2c565b80156112b35780601f10611288576101008083540402835291602001916112b3565b820191906000526020600020905b81548152906001019060200180831161129657829003601f168201915b505050505081526020018583815181106112cf576112cf612c92565b602090810291909101810151825260155463ffffffff169082015242604090910152825183908390811061130557611305612c92565b60200260200101819052505b8061131b81612d13565b9150506110e8565b50600060405180604001604052808381526020018481525060405160200161134b9190612dd0565b60408051601f198184030181529181526000805460155463ffffffff811683526019602052929091209293506001600160a01b0390811692631c92115f92909161139c91600160401b90041661200b565b846040518463ffffffff1660e01b81526004016113bb93929190612e9b565b600060405180830381600087803b1580156113d557600080fd5b505af11580156113e9573d6000803e3d6000fd5b505050505050505b5050565b600060016016600082825461140a9190612f4f565b9091555050601654919050565b6005818154811061142757600080fd5b90600052602060002001600091509050805461144290612d2c565b80601f016020809104026020016040519081016040528092919081815260200182805461146e90612d2c565b80156114bb5780601f10611490576101008083540402835291602001916114bb565b820191906000526020600020905b81548152906001019060200180831161149e57829003601f168201915b505050505081565b6001600160401b03831660009081526019602052604090206114e6828483612fad565b50505050565b60008080805b600186516115009190612cbe565b8110156116ae57600092506000915060005b600b600088848151811061152857611528612c92565b602002602001015181526020019081526020016000208054905081101561169b57600887838151811061155d5761155d612c92565b60200260200101518154811061157557611575612c92565b9060005260206000200154600b600089858151811061159657611596612c92565b6020026020010151815260200190815260200160002082815481106115bd576115bd612c92565b90600052602060002001546115d2919061306d565b6115dc9085612f4f565b93506008876115ec846001612f4f565b815181106115fc576115fc612c92565b60200260200101518154811061161457611614612c92565b9060005260206000200154600b6000898560016116319190612f4f565b8151811061164157611641612c92565b60200260200101518152602001908152602001600020828154811061166857611668612c92565b906000526020600020015461167d919061306d565b6116879084612f4f565b92508061169381612d13565b915050611512565b50806116a681612d13565b9150506114f2565b5060408051600081526020810180835281519020916116cf91879101613084565b604051602081830303815290604052805190602001201461172257846011856040516116fb9190613084565b9081526020016040518091039020908051906020019061171c92919061218d565b5061173b565b845161173590601090602088019061218d565b50426013555b6001925050505b92915050565b6006818154811061175857600080fd5b600091825260209091206004909102018054600182015460028301546003909301546001600160a01b0390921693509163ffffffff169084565b6008818154811061060157600080fd5b60005b8151518110156118ae576000826000015182815181106117c7576117c7612c92565b6020908102919091018101516007805460018101825560009190915281517fa66cc928b5edb82af9bd49922954155ab7b0942694bea4ce44661d9a8736c688600590920291820180546001600160a01b0319166001600160a01b03909216919091178155928201519193508392917fa66cc928b5edb82af9bd49922954155ab7b0942694bea4ce44661d9a8736c6899091019061186490826130a0565b5060408201516002820155606082015160038201805463ffffffff191663ffffffff90921691909117905560809091015160049091015550806118a681612d13565b9150506117a5565b5060005b8160200151518110156113f1576000826020015182815181106118d7576118d7612c92565b6020908102919091018101516006805460018101825560009190915281517ff652222313e28459528d920b65115c16c04f3efc82aaedc97be59f3f377c0d3f600490920291820180546001600160a01b0319166001600160a01b03909216919091179055918101517ff652222313e28459528d920b65115c16c04f3efc82aaedc97be59f3f377c0d4083015560408101517ff652222313e28459528d920b65115c16c04f3efc82aaedc97be59f3f377c0d418301805463ffffffff191663ffffffff909216919091179055606001517ff652222313e28459528d920b65115c16c04f3efc82aaedc97be59f3f377c0d429091015550806119d681612d13565b9150506118b2565b600181815481106119ee57600080fd5b9060005260206000209060040201600091509050806000018054611a1190612d2c565b80601f0160208091040260200160405190810160405280929190818152602001828054611a3d90612d2c565b8015611a8a5780601f10611a5f57610100808354040283529160200191611a8a565b820191906000526020600020905b815481529060010190602001808311611a6d57829003601f168201915b50505050600183015460029093015491926001600160a01b0380821693600160a01b90920463ffffffff1692501684565b611ac9868686868686611dbf565b505050505050565b600a818154811061060157600080fd5b600e54600f54611af19042612cbe565b1015611b5b5760405162461bcd60e51b815260206004820152602f60248201527f496e64657841676772656761746f723a2053616d706c696e672066726571756560448201526e1b98de481b9bdd081c995858da1959608a1b606482015260840160405180910390fd5b600d54600f54611b6b9042612cbe565b10611bd95760005b600154811015611bd7576000818152600b602052604090205415611bc5576000818152600b60205260409020805480611bae57611bae61315f565b600190038181906000526020600020016000905590555b80611bcf81612d13565b915050611b73565b505b60005b600154811015611d6957600060018281548110611bfb57611bfb612c92565b906000526020600020906004020160020160009054906101000a90046001600160a01b03166001600160a01b031663feaf968c6040518163ffffffff1660e01b815260040160a060405180830381865afa158015611c5d573d6000803e3d6000fd5b505050506040513d601f19601f82011682018060405250810190611c81919061318f565b5050506000848152600b6020908152604082208054600181018255818452918320909101839055600c5486835290549294509092501015611cf0576000838152600b60205260409020805480611cd957611cd961315f565b600190038181906000526020600020016000905590555b60005b6000848152600b6020526040902054811015611d53576000848152600b60205260409020805482908110611d2957611d29612c92565b906000526020600020015482611d3f9190612f4f565b915080611d4b81612d13565b915050611cf3565b5050508080611d6190612d13565b915050611bdc565b5042600f5560145415611da457601454604051339180156108fc02916000818181858888f19350505050158015610a57573d6000803e3d6000fd5b565b6019602052600090815260409020805461144290612d2c565b6000611dcd8284018461291b565b905060005b815151811015611edb57600082600001518281518110611df457611df4612c92565b6020908102919091018101516007805460018101825560009190915281517fa66cc928b5edb82af9bd49922954155ab7b0942694bea4ce44661d9a8736c688600590920291820180546001600160a01b0319166001600160a01b03909216919091178155928201519193508392917fa66cc928b5edb82af9bd49922954155ab7b0942694bea4ce44661d9a8736c68990910190611e9190826130a0565b5060408201516002820155606082015160038201805463ffffffff191663ffffffff9092169190911790556080909101516004909101555080611ed381612d13565b915050611dd2565b5060005b81602001515181101561083457600082602001518281518110611f0457611f04612c92565b6020908102919091018101516006805460018101825560009190915281517ff652222313e28459528d920b65115c16c04f3efc82aaedc97be59f3f377c0d3f600490920291820180546001600160a01b0319166001600160a01b03909216919091179055918101517ff652222313e28459528d920b65115c16c04f3efc82aaedc97be59f3f377c0d4083015560408101517ff652222313e28459528d920b65115c16c04f3efc82aaedc97be59f3f377c0d418301805463ffffffff191663ffffffff909216919091179055606001517ff652222313e28459528d920b65115c16c04f3efc82aaedc97be59f3f377c0d4290910155508061200381612d13565b915050611edf565b60408051602880825260608281019093526000919060208201818036833701905050905060005b601481101561214b576000612048826013612cbe565b61205390600861306d565b61205e9060026132c3565b612071906001600160a01b0387166132e5565b60f81b9050600060108260f81c61208891906132f9565b60f81b905060008160f81c601061209f919061331b565b8360f81c6120ad9190613337565b60f81b90506120bb82612152565b856120c786600261306d565b815181106120d7576120d7612c92565b60200101906001600160f81b031916908160001a9053506120f781612152565b8561210386600261306d565b61210e906001612f4f565b8151811061211e5761211e612c92565b60200101906001600160f81b031916908160001a905350505050808061214390612d13565b915050612032565b5092915050565b6000600a60f883901c10156121795761217060f883901c6030613350565b60f81b92915050565b61217060f883901c6057613350565b919050565b8280548282559060005260206000209081019282156121c8579160200282015b828111156121c85782518255916020019190600101906121ad565b506121d49291506121d8565b5090565b5b808211156121d457600081556001016121d9565b634e487b7160e01b600052604160045260246000fd5b604051608081016001600160401b0381118282101715612225576122256121ed565b60405290565b604080519081016001600160401b0381118282101715612225576122256121ed565b60405160a081016001600160401b0381118282101715612225576122256121ed565b604051601f8201601f191681016001600160401b0381118282101715612297576122976121ed565b604052919050565b600082601f8301126122b057600080fd5b81356001600160401b038111156122c9576122c96121ed565b6122dc601f8201601f191660200161226f565b8181528460208386010111156122f157600080fd5b816020850160208301376000918101602001919091529392505050565b60006020828403121561232057600080fd5b81356001600160401b0381111561233657600080fd5b6123428482850161229f565b949350505050565b60006020828403121561235c57600080fd5b5035919050565b6000806040838503121561237657600080fd5b82356001600160401b0381111561238c57600080fd5b6123988582860161229f565b95602094909401359450505050565b803563ffffffff8116811461218857600080fd5b80356001600160a01b038116811461218857600080fd5b6000806000606084860312156123e757600080fd5b6123f0846123a7565b92506123fe602085016123a7565b915061240c604085016123bb565b90509250925092565b60008083601f84011261242757600080fd5b5081356001600160401b0381111561243e57600080fd5b60208301915083602082850101111561245657600080fd5b9250929050565b60008060008060008060008060008060c08b8d03121561247c57600080fd5b8a35995060208b01356001600160401b038082111561249a57600080fd5b6124a68e838f01612415565b909b50995060408d01359150808211156124bf57600080fd5b6124cb8e838f01612415565b909950975060608d01359150808211156124e457600080fd5b6124f08e838f01612415565b909750955060808d013591508082111561250957600080fd5b506125168d828e01612415565b9150809450508092505060a08b013590509295989b9194979a5092959850565b60008060008060008060006080888a03121561255157600080fd5b8735965060208801356001600160401b038082111561256f57600080fd5b61257b8b838c01612415565b909850965060408a013591508082111561259457600080fd5b6125a08b838c01612415565b909650945060608a01359150808211156125b957600080fd5b506125c68a828b01612415565b989b979a50959850939692959293505050565b600080604083850312156125ec57600080fd5b50508035926020909101359150565b80356001600160401b038116811461218857600080fd5b60006020828403121561262457600080fd5b61262d826125fb565b9392505050565b60005b8381101561264f578181015183820152602001612637565b50506000910152565b60008151808452612670816020860160208601612634565b601f01601f19169290920160200192915050565b6001600160a01b038616815260a0602082018190526000906126a890830187612658565b60408301959095525063ffffffff92909216606083015260809091015292915050565b60006001600160401b038211156126e4576126e46121ed565b5060051b60200190565b600082601f8301126126ff57600080fd5b8135602061271461270f836126cb565b61226f565b82815260059290921b8401810191818101908684111561273357600080fd5b8286015b8481101561274e5780358352918301918301612737565b509695505050505050565b6000806040838503121561276c57600080fd5b82356001600160401b038082111561278357600080fd5b61278f868387016126ee565b935060208501359150808211156127a557600080fd5b506127b2858286016126ee565b9150509250929050565b60208152600061262d6020830184612658565b6000806000604084860312156127e457600080fd5b6127ed846125fb565b925060208401356001600160401b0381111561280857600080fd5b61281486828701612415565b9497909650939450505050565b6000806040838503121561283457600080fd5b82356001600160401b038082111561284b57600080fd5b612857868387016126ee565b9350602085013591508082111561286d57600080fd5b506127b28582860161229f565b600082601f83011261288b57600080fd5b8135602061289b61270f836126cb565b82815260079290921b840181019181810190868411156128ba57600080fd5b8286015b8481101561274e57608081890312156128d75760008081fd5b6128df612203565b6128e8826123bb565b8152848201358582015260406128ff8184016123a7565b90820152606082810135908201528352918301916080016128be565b6000602080838503121561292e57600080fd5b82356001600160401b038082111561294557600080fd5b908401906040828703121561295957600080fd5b61296161222b565b82358281111561297057600080fd5b8301601f8101881361298157600080fd5b803561298f61270f826126cb565b81815260059190911b8201860190868101908a8311156129ae57600080fd5b8784015b83811015612a55578035878111156129c957600080fd5b850160a0818e03601f190112156129e05760008081fd5b6129e861224d565b6129f38b83016123bb565b8152604082013589811115612a085760008081fd5b612a168f8d8386010161229f565b8c8301525060608083013560408301526080612a338185016123a7565b9183019190915260a092909201359181019190915283529188019188016129b2565b5084525050508284013582811115612a6c57600080fd5b612a788882860161287a565b948201949094529695505050505050565b608081526000612a9c6080830187612658565b6001600160a01b03958616602084015263ffffffff949094166040830152509216606090920191909152919050565b60008060008060008060608789031215612ae457600080fd5b86356001600160401b0380821115612afb57600080fd5b612b078a838b01612415565b90985096506020890135915080821115612b2057600080fd5b612b2c8a838b01612415565b90965094506040890135915080821115612b4557600080fd5b50612b5289828a01612415565b979a9699509497509295939492505050565b60008060408385031215612b7757600080fd5b612b80836125fb565b9150612b8e602084016123bb565b90509250929050565b8183823760009101908152919050565b81835281816020850137506000828201602090810191909152601f909101601f19169091010190565b89815260c060208201526000612bea60c083018a8c612ba7565b8281036040840152612bfd81898b612ba7565b90508660608401528281036080840152612c18818688612ba7565b9150508260a08301529a9950505050505050505050565b600060208284031215612c4157600080fd5b8151801515811461262d57600080fd5b868152608060208201526000612c6b608083018789612ba7565b8281036040840152612c7e818688612ba7565b915050826060830152979650505050505050565b634e487b7160e01b600052603260045260246000fd5b634e487b7160e01b600052601160045260246000fd5b8181038181111561174257611742612ca8565b600060208284031215612ce357600080fd5b81516001600160801b038116811461262d57600080fd5b600060208284031215612d0c57600080fd5b5051919050565b600060018201612d2557612d25612ca8565b5060010190565b600181811c90821680612d4057607f821691505b602082108103612d6057634e487b7160e01b600052602260045260246000fd5b50919050565b600081518084526020808501945080840160005b83811015612dc557815180516001600160a01b03168852838101518489015260408082015163ffffffff16908901526060908101519088015260809096019590820190600101612d7a565b509495945050505050565b600060208083526060808401855160408085880152828251808552608094508489019150848160051b8a0101878501945060005b82811015612e71578a8203607f19018452855180516001600160a01b031683528981015160a08b850181905290612e3d82860182612658565b83890151868a01528b84015163ffffffff168c870152928a0151948a01949094525095890195938901939150600101612e04565b50968a0151898803601f1901848b015296612e8c8189612d66565b9b9a5050505050505050505050565b606081526000808554612ead81612d2c565b8060608601526080600180841660008114612ecf5760018114612ee957612f1a565b60ff1985168884015283151560051b880183019550612f1a565b8a60005260208060002060005b86811015612f115781548b8201870152908401908201612ef6565b8a018501975050505b50505050508281036020840152612f318186612658565b90508281036040840152612f458185612658565b9695505050505050565b8082018082111561174257611742612ca8565b601f821115612fa857600081815260208120601f850160051c81016020861015612f895750805b601f850160051c820191505b81811015611ac957828155600101612f95565b505050565b6001600160401b03831115612fc457612fc46121ed565b612fd883612fd28354612d2c565b83612f62565b6000601f84116001811461300c5760008515612ff45750838201355b600019600387901b1c1916600186901b178355613066565b600083815260209020601f19861690835b8281101561303d578685013582556020948501946001909201910161301d565b508682101561305a5760001960f88860031b161c19848701351681555b505060018560011b0183555b5050505050565b808202811582820484141761174257611742612ca8565b60008251613096818460208701612634565b9190910192915050565b81516001600160401b038111156130b9576130b96121ed565b6130cd816130c78454612d2c565b84612f62565b602080601f83116001811461310257600084156130ea5750858301515b600019600386901b1c1916600185901b178555611ac9565b600085815260208120601f198616915b8281101561313157888601518255948401946001909101908401613112565b508582101561314f5787850151600019600388901b60f8161c191681555b5050505050600190811b01905550565b634e487b7160e01b600052603160045260246000fd5b805169ffffffffffffffffffff8116811461218857600080fd5b600080600080600060a086880312156131a757600080fd5b6131b086613175565b94506020860151935060408601519250606086015191506131d360808701613175565b90509295509295909350565b600181815b8085111561321a57816000190482111561320057613200612ca8565b8085161561320d57918102915b93841c93908002906131e4565b509250929050565b60008261323157506001611742565b8161323e57506000611742565b8160018114613254576002811461325e5761327a565b6001915050611742565b60ff84111561326f5761326f612ca8565b50506001821b611742565b5060208310610133831016604e8410600b841016171561329d575081810a611742565b6132a783836131df565b80600019048211156132bb576132bb612ca8565b029392505050565b600061262d8383613222565b634e487b7160e01b600052601260045260246000fd5b6000826132f4576132f46132cf565b500490565b600060ff83168061330c5761330c6132cf565b8060ff84160491505092915050565b60ff818116838216029081169081811461214b5761214b612ca8565b60ff828116828216039081111561174257611742612ca8565b60ff818116838216019081111561174257611742612ca856fea2646970667358221220475318593bfa390f2991a8dc0d255f20f9ae196c5aed1b48bf962f4b83c9eade64736f6c63430008110033",
  "devdoc": {
    "kind": "dev",
    "methods": {},
    "version": 1
  },
  "userdoc": {
    "kind": "user",
    "methods": {},
    "version": 1
  },
  "storageLayout": {
    "storage": [
      {
        "astId": 796,
        "contract": "contracts/IndexAggregator.sol:IndexAggregator",
        "label": "axelarGateway",
        "offset": 0,
        "slot": "0",
        "type": "t_contract(IAxelarGateway)514"
      },
      {
        "astId": 800,
        "contract": "contracts/IndexAggregator.sol:IndexAggregator",
        "label": "tokenInfo",
        "offset": 0,
        "slot": "1",
        "type": "t_array(t_struct(TokenInfo)746_storage)dyn_storage"
      },
      {
        "astId": 804,
        "contract": "contracts/IndexAggregator.sol:IndexAggregator",
        "label": "tmpTokens",
        "offset": 0,
        "slot": "2",
        "type": "t_array(t_struct(TokenInfo)746_storage)dyn_storage"
      },
      {
        "astId": 807,
        "contract": "contracts/IndexAggregator.sol:IndexAggregator",
        "label": "liquidityManager",
        "offset": 0,
        "slot": "3",
        "type": "t_contract(ILiquidityManager)719"
      },
      {
        "astId": 811,
        "contract": "contracts/IndexAggregator.sol:IndexAggregator",
        "label": "tokens",
        "offset": 0,
        "slot": "4",
        "type": "t_mapping(t_string_memory_ptr,t_uint256)"
      },
      {
        "astId": 814,
        "contract": "contracts/IndexAggregator.sol:IndexAggregator",
        "label": "tokenSymbols",
        "offset": 0,
        "slot": "5",
        "type": "t_array(t_string_storage)dyn_storage"
      },
      {
        "astId": 818,
        "contract": "contracts/IndexAggregator.sol:IndexAggregator",
        "label": "supplyMessages",
        "offset": 0,
        "slot": "6",
        "type": "t_array(t_struct(SupplyMessage)766_storage)dyn_storage"
      },
      {
        "astId": 822,
        "contract": "contracts/IndexAggregator.sol:IndexAggregator",
        "label": "liquidityMessages",
        "offset": 0,
        "slot": "7",
        "type": "t_array(t_struct(LiquidityMessage)757_storage)dyn_storage"
      },
      {
        "astId": 825,
        "contract": "contracts/IndexAggregator.sol:IndexAggregator",
        "label": "totalSupplies",
        "offset": 0,
        "slot": "8",
        "type": "t_array(t_uint256)dyn_storage"
      },
      {
        "astId": 828,
        "contract": "contracts/IndexAggregator.sol:IndexAggregator",
        "label": "liquidities",
        "offset": 0,
        "slot": "9",
        "type": "t_array(t_uint256)dyn_storage"
      },
      {
        "astId": 831,
        "contract": "contracts/IndexAggregator.sol:IndexAggregator",
        "label": "tokenParamsTimestampUpdates",
        "offset": 0,
        "slot": "10",
        "type": "t_array(t_uint256)dyn_storage"
      },
      {
        "astId": 836,
        "contract": "contracts/IndexAggregator.sol:IndexAggregator",
        "label": "movingAverage",
        "offset": 0,
        "slot": "11",
        "type": "t_mapping(t_uint256,t_array(t_uint256)dyn_storage)"
      },
      {
        "astId": 838,
        "contract": "contracts/IndexAggregator.sol:IndexAggregator",
        "label": "sampleSize",
        "offset": 0,
        "slot": "12",
        "type": "t_uint256"
      },
      {
        "astId": 840,
        "contract": "contracts/IndexAggregator.sol:IndexAggregator",
        "label": "timeWindow",
        "offset": 0,
        "slot": "13",
        "type": "t_uint256"
      },
      {
        "astId": 842,
        "contract": "contracts/IndexAggregator.sol:IndexAggregator",
        "label": "samplingFrequency",
        "offset": 0,
        "slot": "14",
        "type": "t_uint256"
      },
      {
        "astId": 844,
        "contract": "contracts/IndexAggregator.sol:IndexAggregator",
        "label": "lastSampleTime",
        "offset": 0,
        "slot": "15",
        "type": "t_uint256"
      },
      {
        "astId": 847,
        "contract": "contracts/IndexAggregator.sol:IndexAggregator",
        "label": "lastIndexOrder",
        "offset": 0,
        "slot": "16",
        "type": "t_array(t_uint256)dyn_storage"
      },
      {
        "astId": 852,
        "contract": "contracts/IndexAggregator.sol:IndexAggregator",
        "label": "tagsIndexOrder",
        "offset": 0,
        "slot": "17",
        "type": "t_mapping(t_string_memory_ptr,t_array(t_uint256)dyn_storage)"
      },
      {
        "astId": 856,
        "contract": "contracts/IndexAggregator.sol:IndexAggregator",
        "label": "tagsIndexTimestamp",
        "offset": 0,
        "slot": "18",
        "type": "t_mapping(t_string_memory_ptr,t_uint256)"
      },
      {
        "astId": 858,
        "contract": "contracts/IndexAggregator.sol:IndexAggregator",
        "label": "lastIndexTimestamp",
        "offset": 0,
        "slot": "19",
        "type": "t_uint256"
      },
      {
        "astId": 860,
        "contract": "contracts/IndexAggregator.sol:IndexAggregator",
        "label": "bribeUnit",
        "offset": 0,
        "slot": "20",
        "type": "t_uint256"
      },
      {
        "astId": 862,
        "contract": "contracts/IndexAggregator.sol:IndexAggregator",
        "label": "chainId",
        "offset": 0,
        "slot": "21",
        "type": "t_uint32"
      },
      {
        "astId": 864,
        "contract": "contracts/IndexAggregator.sol:IndexAggregator",
        "label": "mainChainId",
        "offset": 4,
        "slot": "21",
        "type": "t_uint32"
      },
      {
        "astId": 866,
        "contract": "contracts/IndexAggregator.sol:IndexAggregator",
        "label": "mainChainAddress",
        "offset": 8,
        "slot": "21",
        "type": "t_address"
      },
      {
        "astId": 869,
        "contract": "contracts/IndexAggregator.sol:IndexAggregator",
        "label": "sequenceId",
        "offset": 0,
        "slot": "22",
        "type": "t_uint256"
      },
      {
        "astId": 872,
        "contract": "contracts/IndexAggregator.sol:IndexAggregator",
        "label": "tokenCount",
        "offset": 0,
        "slot": "23",
        "type": "t_uint256"
      },
      {
        "astId": 876,
        "contract": "contracts/IndexAggregator.sol:IndexAggregator",
        "label": "chainSelectorIdToSidechainAddress",
        "offset": 0,
        "slot": "24",
        "type": "t_mapping(t_uint64,t_address)"
      },
      {
        "astId": 880,
        "contract": "contracts/IndexAggregator.sol:IndexAggregator",
        "label": "chainSelectorIdToDestinationChain",
        "offset": 0,
        "slot": "25",
        "type": "t_mapping(t_uint64,t_string_storage)"
      }
    ],
    "types": {
      "t_address": {
        "encoding": "inplace",
        "label": "address",
        "numberOfBytes": "20"
      },
      "t_array(t_string_storage)dyn_storage": {
        "base": "t_string_storage",
        "encoding": "dynamic_array",
        "label": "string[]",
        "numberOfBytes": "32"
      },
      "t_array(t_struct(LiquidityMessage)757_storage)dyn_storage": {
        "base": "t_struct(LiquidityMessage)757_storage",
        "encoding": "dynamic_array",
        "label": "struct LiquidityMessage[]",
        "numberOfBytes": "32"
      },
      "t_array(t_struct(SupplyMessage)766_storage)dyn_storage": {
        "base": "t_struct(SupplyMessage)766_storage",
        "encoding": "dynamic_array",
        "label": "struct SupplyMessage[]",
        "numberOfBytes": "32"
      },
      "t_array(t_struct(TokenInfo)746_storage)dyn_storage": {
        "base": "t_struct(TokenInfo)746_storage",
        "encoding": "dynamic_array",
        "label": "struct TokenInfo[]",
        "numberOfBytes": "32"
      },
      "t_array(t_uint256)dyn_storage": {
        "base": "t_uint256",
        "encoding": "dynamic_array",
        "label": "uint256[]",
        "numberOfBytes": "32"
      },
      "t_contract(IAxelarGateway)514": {
        "encoding": "inplace",
        "label": "contract IAxelarGateway",
        "numberOfBytes": "20"
      },
      "t_contract(ILiquidityManager)719": {
        "encoding": "inplace",
        "label": "contract ILiquidityManager",
        "numberOfBytes": "20"
      },
      "t_mapping(t_string_memory_ptr,t_array(t_uint256)dyn_storage)": {
        "encoding": "mapping",
        "key": "t_string_memory_ptr",
        "label": "mapping(string => uint256[])",
        "numberOfBytes": "32",
        "value": "t_array(t_uint256)dyn_storage"
      },
      "t_mapping(t_string_memory_ptr,t_uint256)": {
        "encoding": "mapping",
        "key": "t_string_memory_ptr",
        "label": "mapping(string => uint256)",
        "numberOfBytes": "32",
        "value": "t_uint256"
      },
      "t_mapping(t_uint256,t_array(t_uint256)dyn_storage)": {
        "encoding": "mapping",
        "key": "t_uint256",
        "label": "mapping(uint256 => uint256[])",
        "numberOfBytes": "32",
        "value": "t_array(t_uint256)dyn_storage"
      },
      "t_mapping(t_uint64,t_address)": {
        "encoding": "mapping",
        "key": "t_uint64",
        "label": "mapping(uint64 => address)",
        "numberOfBytes": "32",
        "value": "t_address"
      },
      "t_mapping(t_uint64,t_string_storage)": {
        "encoding": "mapping",
        "key": "t_uint64",
        "label": "mapping(uint64 => string)",
        "numberOfBytes": "32",
        "value": "t_string_storage"
      },
      "t_string_memory_ptr": {
        "encoding": "bytes",
        "label": "string",
        "numberOfBytes": "32"
      },
      "t_string_storage": {
        "encoding": "bytes",
        "label": "string",
        "numberOfBytes": "32"
      },
      "t_struct(LiquidityMessage)757_storage": {
        "encoding": "inplace",
        "label": "struct LiquidityMessage",
        "members": [
          {
            "astId": 748,
            "contract": "contracts/IndexAggregator.sol:IndexAggregator",
            "label": "token",
            "offset": 0,
            "slot": "0",
            "type": "t_address"
          },
          {
            "astId": 750,
            "contract": "contracts/IndexAggregator.sol:IndexAggregator",
            "label": "tokenDemonination",
            "offset": 0,
            "slot": "1",
            "type": "t_string_storage"
          },
          {
            "astId": 752,
            "contract": "contracts/IndexAggregator.sol:IndexAggregator",
            "label": "liquidity",
            "offset": 0,
            "slot": "2",
            "type": "t_uint256"
          },
          {
            "astId": 754,
            "contract": "contracts/IndexAggregator.sol:IndexAggregator",
            "label": "chainId",
            "offset": 0,
            "slot": "3",
            "type": "t_uint32"
          },
          {
            "astId": 756,
            "contract": "contracts/IndexAggregator.sol:IndexAggregator",
            "label": "timestamp",
            "offset": 0,
            "slot": "4",
            "type": "t_uint256"
          }
        ],
        "numberOfBytes": "160"
      },
      "t_struct(SupplyMessage)766_storage": {
        "encoding": "inplace",
        "label": "struct SupplyMessage",
        "members": [
          {
            "astId": 759,
            "contract": "contracts/IndexAggregator.sol:IndexAggregator",
            "label": "token",
            "offset": 0,
            "slot": "0",
            "type": "t_address"
          },
          {
            "astId": 761,
            "contract": "contracts/IndexAggregator.sol:IndexAggregator",
            "label": "supply",
            "offset": 0,
            "slot": "1",
            "type": "t_uint256"
          },
          {
            "astId": 763,
            "contract": "contracts/IndexAggregator.sol:IndexAggregator",
            "label": "chainId",
            "offset": 0,
            "slot": "2",
            "type": "t_uint32"
          },
          {
            "astId": 765,
            "contract": "contracts/IndexAggregator.sol:IndexAggregator",
            "label": "timestamp",
            "offset": 0,
            "slot": "3",
            "type": "t_uint256"
          }
        ],
        "numberOfBytes": "128"
      },
      "t_struct(TokenInfo)746_storage": {
        "encoding": "inplace",
        "label": "struct TokenInfo",
        "members": [
          {
            "astId": 736,
            "contract": "contracts/IndexAggregator.sol:IndexAggregator",
            "label": "_symbol",
            "offset": 0,
            "slot": "0",
            "type": "t_string_storage"
          },
          {
            "astId": 738,
            "contract": "contracts/IndexAggregator.sol:IndexAggregator",
            "label": "_address",
            "offset": 0,
            "slot": "1",
            "type": "t_address"
          },
          {
            "astId": 740,
            "contract": "contracts/IndexAggregator.sol:IndexAggregator",
            "label": "_chainId",
            "offset": 20,
            "slot": "1",
            "type": "t_uint32"
          },
          {
            "astId": 742,
            "contract": "contracts/IndexAggregator.sol:IndexAggregator",
            "label": "_aggregator",
            "offset": 0,
            "slot": "2",
            "type": "t_address"
          },
          {
            "astId": 745,
            "contract": "contracts/IndexAggregator.sol:IndexAggregator",
            "label": "_tags",
            "offset": 0,
            "slot": "3",
            "type": "t_array(t_string_storage)dyn_storage"
          }
        ],
        "numberOfBytes": "128"
      },
      "t_uint256": {
        "encoding": "inplace",
        "label": "uint256",
        "numberOfBytes": "32"
      },
      "t_uint32": {
        "encoding": "inplace",
        "label": "uint32",
        "numberOfBytes": "4"
      },
      "t_uint64": {
        "encoding": "inplace",
        "label": "uint64",
        "numberOfBytes": "8"
      }
    }
  }
}