{
  "address": "0xf099CdA8a4dd9154913Ec7c1A99Ca3B4504F527B",
  "abi": [
    {
      "inputs": [
        {
          "internalType": "address",
          "name": "t0",
          "type": "address"
        },
        {
          "internalType": "address",
          "name": "t1",
          "type": "address"
        },
        {
          "internalType": "uint24",
          "name": "f",
          "type": "uint24"
        },
        {
          "internalType": "uint128",
          "name": "l",
          "type": "uint128"
        }
      ],
      "stateMutability": "nonpayable",
      "type": "constructor"
    },
    {
      "inputs": [],
      "name": "liquidity",
      "outputs": [
        {
          "internalType": "uint128",
          "name": "",
          "type": "uint128"
        }
      ],
      "stateMutability": "view",
      "type": "function"
    },
    {
      "inputs": [
        {
          "internalType": "uint128",
          "name": "l",
          "type": "uint128"
        }
      ],
      "name": "setLiquidity",
      "outputs": [],
      "stateMutability": "nonpayable",
      "type": "function"
    },
    {
      "inputs": [],
      "name": "token0",
      "outputs": [
        {
          "internalType": "address",
          "name": "",
          "type": "address"
        }
      ],
      "stateMutability": "view",
      "type": "function"
    },
    {
      "inputs": [],
      "name": "token1",
      "outputs": [
        {
          "internalType": "address",
          "name": "",
          "type": "address"
        }
      ],
      "stateMutability": "view",
      "type": "function"
    }
  ],
  "transactionHash": "0x9e70a4e7bda7839bf3d4a342943827839ed9fff330670b05d4f0b4d5e2abed78",
  "args": [
    "0x52a57341ce681eEfa9Fa13F12C7d3422EcAfd5a7",
    "0x70b36Eb78C31A3d9f1356b9100B8569DfD359B26",
    500,
    "0"
  ],
  "numDeployments": 18,
  "solcInputHash": "64dcbb36cda968371002fd2007867d15",
  "bytecode": "0x608060405234801561001057600080fd5b5060405161024c38038061024c83398101604081905261002f916100bb565b600080546001600160a01b03199081166001600160a01b0396871617909155600180549091169390941692909217909255600280546001600160981b031916600160801b62ffffff909416939093026001600160801b031916929092176001600160801b03909116179055610128565b80516001600160a01b03811681146100b657600080fd5b919050565b600080600080608085870312156100d157600080fd5b6100da8561009f565b93506100e86020860161009f565b9250604085015162ffffff8116811461010057600080fd5b60608601519092506001600160801b038116811461011d57600080fd5b939692955090935050565b610115806101376000396000f3fe6080604052348015600f57600080fd5b506004361060465760003560e01c80630dfe168114604b5780631a68650214605f5780633d718da0146079578063d21220a714604b575b600080fd5b604051600081526020015b60405180910390f35b6002546040516001600160801b0390911681526020016056565b60af608436600460b1565b600280546fffffffffffffffffffffffffffffffff19166001600160801b0392909216919091179055565b005b60006020828403121560c257600080fd5b81356001600160801b038116811460d857600080fd5b939250505056fea264697066735822122098bf02ba0606cc7deb1b76af29474a31fe054ee3998ba2ba83edcd53b729df4864736f6c63430008110033",
  "devdoc": {
    "kind": "dev",
    "methods": {},
    "version": 1
  },
  "userdoc": {
    "kind": "user",
    "methods": {},
    "version": 1
  },
  "storageLayout": {
    "storage": [
      {
        "astId": 25,
        "contract": "contracts/MockUniswapV3Pool.sol:MockUniswapV3Pool",
        "label": "_token0",
        "offset": 0,
        "slot": "0",
        "type": "t_address"
      },
      {
        "astId": 27,
        "contract": "contracts/MockUniswapV3Pool.sol:MockUniswapV3Pool",
        "label": "_token1",
        "offset": 0,
        "slot": "1",
        "type": "t_address"
      },
      {
        "astId": 29,
        "contract": "contracts/MockUniswapV3Pool.sol:MockUniswapV3Pool",
        "label": "_liquidity",
        "offset": 0,
        "slot": "2",
        "type": "t_uint128"
      },
      {
        "astId": 31,
        "contract": "contracts/MockUniswapV3Pool.sol:MockUniswapV3Pool",
        "label": "_fee",
        "offset": 16,
        "slot": "2",
        "type": "t_uint24"
      }
    ],
    "types": {
      "t_address": {
        "encoding": "inplace",
        "label": "address",
        "numberOfBytes": "20"
      },
      "t_uint128": {
        "encoding": "inplace",
        "label": "uint128",
        "numberOfBytes": "16"
      },
      "t_uint24": {
        "encoding": "inplace",
        "label": "uint24",
        "numberOfBytes": "3"
      }
    }
  }
}